:100000000C942A000C9447000C9447000C94470071
:100010000C9447000C9447000C9447000C94470044
:100020000C9447000C9447000C9413050C94470063
:100030000C9447000C9447000C9447000C94470024
:100040000C9447000C9447000C9447000C94470014
:100050000C94470011241FBECFE5D8E0DEBFCDBF12
:1000600010E0A0E6B0E0EAEEFAE002C005900D92E2
:10007000A839B107D9F710E0A8E9B0E001C01D9296
:10008000AB39B107E1F70E94D0040C9473050C94CE
:100090000000843409F479C0853448F48234B1F125
:1000A000833408F053C0813409F08DC00FC082360C
:1000B00069F1833620F4813609F085C007C08336A4
:1000C00009F444C0843609F07EC05FC0413069F451
:1000D0002AB381E090E0AC0102C0440F551F6A953D
:1000E000E2F7BA01622B6ABB0895442309F06BC0A2
:1000F0002AB381E090E0AC0102C0440F551F6A951D
:10010000E2F7BA01609562236ABB0895413069F451
:1001100027B381E090E0AC0102C0440F551F6A95FF
:10012000E2F7BA01622B67BB0895442309F04BC084
:1001300027B381E090E0AC0102C0440F551F6A95DF
:10014000E2F7BA016095622367BB0895413069F414
:1001500024B381E090E0AC0102C0440F551F6A95C2
:10016000E2F7BA01622B64BB0895442361F524B31E
:1001700081E090E0AC0102C0440F551F6A95E2F7A0
:10018000BA016095622364BB0895413069F421B3DC
:1001900081E090E0AC0102C0440F551F6A95E2F780
:1001A000BA01622B61BB0895442369F421B381E055
:1001B00090E0AC0102C0440F551F6A95E2F7BA0106
:1001C0006095622361BB0895843409F471C085345D
:1001D00048F4823499F1833408F04DC0813409F039
:1001E00083C00FC0823651F1833620F4813609F086
:1001F0007BC007C0833609F43EC0843609F074C062
:1002000057C0413069F42BB381E090E0AC0102C0EB
:10021000440F551F6A95E2F7BA01622B6BBB089534
:100220002BB381E090E0AC0102C0440F551F6A95EA
:10023000E2F7BA01609562236BBB0895413069F41F
:1002400028B381E090E0AC0102C0440F551F6A95CD
:10025000E2F7BA01622B68BB089528B381E090E011
:10026000AC0102C0440F551F6A95E2F7BA016095D0
:10027000622368BB0895413069F425B381E090E0C2
:10028000AC0102C0440F551F6A95E2F7BA01622B18
:1002900065BB089525B381E090E0AC0102C0440F36
:1002A000551F6A95E2F7BA016095622365BB089510
:1002B000413069F422B381E090E0AC0102C0440F08
:1002C000551F6A95E2F7BA01622B62BB089522B30B
:1002D00081E090E0AC0102C0440F551F6A95E2F73F
:1002E000BA016095622362BB0895843409F43DC06D
:1002F000853440F48234F9F0833450F5813409F0C8
:1003000040C00CC08236B9F0833618F48136C9F586
:1003100005C08336E9F08436A1F527C02BB381E010
:1003200090E0AC0102C0440F551F6A95E2F7BA0194
:1003300062276BBB089528B381E090E0AC0102C056
:10034000440F551F6A95E2F7BA01622768BB08950A
:1003500025B381E090E0AC0102C0440F551F6A95BF
:10036000E2F7BA01622765BB089522B381E090E00D
:10037000AC0102C0440F551F6A95E2F7BA0162272B
:1003800062BB0895843409F44EC0853440F482344D
:1003900031F18334B0F5813409F057C00EC0823694
:1003A000F1F0833620F4813609F04FC006C0833661
:1003B00041F1843609F049C036C029B381E090E0AC
:1003C000062E02C0880F991F0A94E2F730E08223BC
:1003D000932302C0959587956A95E2F7089526B311
:1003E00081E090E0062E02C0880F991F0A94E2F780
:1003F00030E08223932302C0959587956A95E2F7B2
:10040000089523B381E090E0062E02C0880F991F63
:100410000A94E2F730E08223932302C095958795F2
:100420006A95E2F7089520B381E090E0062E02C0BD
:10043000880F991F0A94E2F730E08223932302C0C9
:10044000959587956A95E2F7089580E0089584343C
:10045000D9F0853438F4823499F0833498F48134B7
:10046000A1F40CC0823661F0833618F4813669F449
:1004700005C0833639F0843641F406C06ABB08955E
:1004800067BB089564BB089561BB08958434D9F0B7
:10049000853438F4823499F0833498F48134A1F4AB
:1004A0000CC0823661F0833618F4813669F405C0D9
:1004B000833639F0843641F406C06BBB089568BBBF
:1004C000089565BB089562BB08958434D9F08534DE
:1004D00038F4823499F0833498F48134A9F40CC050
:1004E000823661F0833618F4813671F405C08336A4
:1004F00039F0843649F406C089B3089586B3089567
:1005000083B3089580B3089580E00895843409F199
:10051000853438F48234A9F08334B8F48134E1F4BA
:100520000CC0823671F0833618F48136A9F405C008
:10053000833659F0843681F40CC08BB380958BBB25
:10054000089588B3809588BB089585B3809585BB51
:10055000089582B3809582BB08950E94E4000895B7
:10056000CF92DF92FF920F931F93CF93DF93F82EDA
:10057000C0E0D0E001E010E0C62EDD24C8010C2E62
:1005800002C0880F991F0A94E2F78C219D219C01DB
:100590000C2E02C0359527950A94E2F7A9018F2DFC
:1005A0006C2F0E94E4002196C430D10539F7DF9109
:1005B000CF911F910F91FF90DF90CF900895CF9230
:1005C000DF92FF920F931F93CF93DF93F82EC0E03B
:1005D000D0E001E010E0C62EDD246C2F6C5FC80176
:1005E0000C2E02C0880F991F0A94E2F78C219D21DE
:1005F0009C010C2E02C0359527950A94E2F7A901BB
:100600008F2D0E94E4002196C430D10531F7DF918F
:10061000CF911F910F91FF90DF90CF900895CF92CF
:10062000DF92EF92FF920F931F93CF93DF93082FE8
:10063000162FC0E0D0E0EE24FF24E394C42EDD2486
:100640006C2F610FC7010C2E02C0880F991F0A94EE
:10065000E2F78C219D219C010C2E02C03595279537
:100660000A94E2F7A901802F0E94E4002196C43089
:10067000D10531F7DF91CF911F910F91FF90EF904E
:10068000DF90CF900895CF92DF92EF92FF920F9379
:100690001F93CF93DF93082F162FC0E0D0E0EE24F6
:1006A000FF24E394C42EDD246C2F610FC7010C2EB0
:1006B00002C0880F991F0A94E2F78C219D219C01AA
:1006C0000C2E02C0359527950A94E2F7A901802FD8
:1006D0000E9449002196C430D10531F7DF91CF91B6
:1006E0001F910F91FF90EF90DF90CF90089581E4DC
:1006F00060E041E00E94490081E461E041E00E9445
:10070000490081E462E041E00E94490081E463E045
:1007100041E00E94490081E464E040E00E94490019
:1007200081E465E040E00E94490081E466E040E049
:100730000E94490081E467E040E00E94490081E4B2
:1007400064E041E00E94AD0281E465E041E00E9486
:10075000AD0281E466E041E00E94AD0281E467E021
:1007600041E00E94AD0208950F931F93CF93DF9352
:10077000CDB7DEB760970FB6F894DEBF0FBECDBF22
:10078000DE011196E0E6F0E080E101900D928150EB
:10079000E1F700E081E460E041E00E94E40081E4F0
:1007A00061E041E00E94E40081E462E041E00E94F7
:1007B000E40081E463E041E00E94E40081E4602F12
:1007C00040E00E94E40010E0612F6C5F81E40E9431
:1007D000C201882361F4E02FF0E0EE0FFF1FEE0F5F
:1007E000FF1FE10FF11DEC0FFD1F818104C01F5F92
:1007F000143051F70BC060960FB6F894DEBF0FBEF1
:10080000CDBFDF91CF911F910F9108950F5F0430FD
:1008100009F68FEFF0CF82E462E041E00E94E4004D
:100820008FE99FE00197F1F700C0000082E462E0E9
:1008300040E00E94E4008FE99FE00197F1F700C0DB
:1008400000000895CF93C82F82E460E040E00E944A
:10085000E4006C2F62956F7082E40E94DF020E94B8
:100860000B0482E46C2F0E94DF020E940B04CF91E4
:100870000895982F9150923060F4662361F06131B1
:1008800060F4813019F4862F815808C0862F815476
:1008900005C080E803C080E801C080E80E9422040F
:1008A000089582E00E9422048FE19EE40197F1F70F
:1008B00000C00000089581E00E9422048FE19EE4C0
:1008C0000197F1F700C0000008958FEF91EEA4E0CA
:1008D00081509040A040E1F700C0000082E464E055
:1008E00041E00E94490082E465E041E00E94490045
:1008F00082E466E041E00E94490082E467E041E072
:100900000E94490082E460E041E00E94490082E4E4
:1009100062E041E00E94490082E461E041E00E941F
:10092000490082E461E040E00E94E4000E9451043A
:1009300088E20E9422048CE00E9422040E945B0450
:1009400086E00E9422040895CF93C82F82E460E0DD
:1009500041E00E94E4006C2F62956F7082E40E9477
:10096000DF020E940B0482E46C2F0E94DF020E94CF
:100970000B04CF910895CF93DF93EC0188818823F6
:1009800061F021960E94A4048FEC97E00197F1F7A3
:1009900000C0000089918823A9F7DF91CF910895C5
:1009A000CF930E9465040E9477030E942A0580E786
:1009B00090E00E94BB040E94B403C82F20919900CC
:1009C00030919A0083E0283E380758F00E945B047B
:1009D00082E064E00E94390486E790E00E94BB0454
:1009E00002C0CF3F41F382E064E00E943904C53386
:1009F00029F480E890E00E94BB0406C0CF3F21F0BC
:100A00008AE890E00E94BB048FEF93EDA0E3815051
:100A10009040A040E1F700C000000E945B0480E02D
:100A200090E0CF9108951F920F920FB60F9211246C
:100A30008F939F938091990090919A000196909343
:100A40009A00809399009F918F910F900FBE0F9005
:100A50001F90189583B7886083BF83B7816083BF79
:100A600083B7846083BF80E58CBF789489B7826048
:100A700089BF0895BB9A83B7886083BF80E48CBF29
:100A800083B7816083BF83B7846083BF83B780618E
:100A900083BF0895BB9A83B7806483BF83B78860A0
:100AA00083BF80E48CBF83B7816083BF83B78460DA
:100AB00083BF83B7806183BF83B7806283BF08959C
:100AC000BB9A83B7806483BF80E48CBF83B78160A7
:100AD00083BF83B7846083BF83B7806183BF83B7DD
:0A0AE000806283BF0895F894FFCFF1
:100AEA003738392F3435362A3132332D41303D2BC0
:100AFA00332B3F3D380054696D65204F766572008F
:100B0A0057656C6C20646F6E650057726F6E672054
:080B1A00616E73776572000043
:00000001FF
