:100000000C942A000C9447000C9447000C94470071
:100010000C9447000C9441070C9447000C94470043
:100020000C9447000C9447000C9447000C94470034
:100030000C9447000C9447000C9447000C94470024
:100040000C9447000C9447000C9447000C94470014
:100050000C94470011241FBECFE5D8E0DEBFCDBF12
:1000600010E0A0E6B0E0E6E8F1E102C005900D92F4
:10007000A23FB107D9F710E0A2EFB0E001C01D9296
:10008000AC3FB107E1F70E9410050C94C1080C9435
:1000900000006FEF0E9459020895CF93DF93CDB710
:1000A000DEB760970FB6F894DEBF0FBECDBFDE019E
:1000B0001196E0E6F0E090E101900D929150E1F7A9
:1000C000FE01E60FF11D61810E94780260960FB675
:1000D000F894DEBF0FBECDBFDF91CF91089590E0C1
:1000E00070E040E050E00E947B00089590E070E0F6
:1000F0000E94F4010895843409F479C0853448F4E9
:100100008234B1F1833408F053C0813409F08DC0DA
:100110000FC0823669F1833620F4813609F085C03C
:1001200007C0833609F444C0843609F07EC05FC03E
:10013000413069F42AB381E090E0AC0102C0440F81
:10014000551F6A95E2F7BA01622B6ABB08954423F2
:1001500009F06BC02AB381E090E0AC0102C0440F0B
:10016000551F6A95E2F7BA01609562236ABB08954C
:10017000413069F427B381E090E0AC0102C0440F44
:10018000551F6A95E2F7BA01622B67BB08954423B5
:1001900009F04BC027B381E090E0AC0102C0440FEE
:1001A000551F6A95E2F7BA016095622367BB08950F
:1001B000413069F424B381E090E0AC0102C0440F07
:1001C000551F6A95E2F7BA01622B64BB0895442378
:1001D00061F524B381E090E0AC0102C0440F551FEB
:1001E0006A95E2F7BA016095622364BB08954130D5
:1001F00069F421B381E090E0AC0102C0440F551FC7
:100200006A95E2F7BA01622B61BB0895442369F451
:1002100021B381E090E0AC0102C0440F551F6A9504
:10022000E2F7BA016095622361BB0895843409F452
:1002300071C0853448F4823499F1833408F04DC09C
:10024000813409F083C00FC0823651F1833620F427
:10025000813609F07BC007C0833609F43EC084367E
:1002600009F074C057C0413069F42BB381E090E0CD
:10027000AC0102C0440F551F6A95E2F7BA01622B28
:100280006BBB08952BB381E090E0AC0102C0440F3A
:10029000551F6A95E2F7BA01609562236BBB08951A
:1002A000413069F428B381E090E0AC0102C0440F12
:1002B000551F6A95E2F7BA01622B68BB089528B30F
:1002C00081E090E0AC0102C0440F551F6A95E2F74F
:1002D000BA016095622368BB0895413069F425B383
:1002E00081E090E0AC0102C0440F551F6A95E2F72F
:1002F000BA01622B65BB089525B381E090E0AC01A3
:1003000002C0440F551F6A95E2F7BA016095622357
:1003100065BB0895413069F422B381E090E0AC01FF
:1003200002C0440F551F6A95E2F7BA01622B62BB07
:10033000089522B381E090E0AC0102C0440F551F44
:100340006A95E2F7BA016095622362BB089584342E
:1003500009F43DC0853440F48234F9F0833450F51B
:10036000813409F040C00CC08236B9F0833618F4ED
:100370008136C9F505C08336E9F08436A1F527C07A
:100380002BB381E090E0AC0102C0440F551F6A9589
:10039000E2F7BA0162276BBB089528B381E090E0D1
:1003A000AC0102C0440F551F6A95E2F7BA016227FB
:1003B00068BB089525B381E090E0AC0102C0440F12
:1003C000551F6A95E2F7BA01622765BB089522B30B
:1003D00081E090E0AC0102C0440F551F6A95E2F73E
:1003E000BA01622762BB0895843409F44EC0853493
:1003F00040F4823431F18334B0F5813409F057C0D0
:100400000EC08236F1F0833620F4813609F04FC0F9
:1004100006C0833641F1843609F049C036C029B39D
:1004200081E090E0062E02C0880F991F0A94E2F73F
:1004300030E08223932302C0959587956A95E2F771
:10044000089526B381E090E0062E02C0880F991F20
:100450000A94E2F730E08223932302C095958795B2
:100460006A95E2F7089523B381E090E0062E02C07A
:10047000880F991F0A94E2F730E08223932302C089
:10048000959587956A95E2F7089520B381E090E00D
:10049000062E02C0880F991F0A94E2F730E08223EB
:1004A000932302C0959587956A95E2F7089580E0B9
:1004B00008958434D9F0853438F4823499F0833443
:1004C00098F48134A1F40CC0823661F0833618F4BC
:1004D000813669F405C0833639F0843641F406C0AC
:1004E0006ABB089567BB089564BB089561BB089516
:1004F0008434D9F0853438F4823499F0833498F414
:100500008134A1F40CC0823661F0833618F4813650
:1005100069F405C0833639F0843641F406C06BBBFC
:10052000089568BB089565BB089562BB089584343F
:10053000D9F0853438F4823499F0833498F48134D6
:10054000A9F40CC0823661F0833618F4813671F458
:1005500005C0833639F0843649F406C089B308955E
:1005600086B3089583B3089580B3089580E0089515
:10057000843409F1853438F48234A9F08334B8F432
:100580008134E1F40CC0823671F0833618F4813680
:10059000A9F405C0833659F0843681F40CC08BB3BE
:1005A00080958BBB089588B3809588BB089585B3EB
:1005B000809585BB089582B3809582BB08950E9483
:1005C00016010895CF92DF92FF920F931F93CF935E
:1005D000DF93F82EC0E0D0E001E010E0C62EDD246D
:1005E000C8010C2E02C0880F991F0A94E2F78C21D3
:1005F0009D219C010C2E02C0359527950A94E2F7A7
:10060000A9018F2D6C2F0E9416012196C430D105AF
:1006100039F7DF91CF911F910F91FF90DF90CF902D
:100620000895CF92DF92FF920F931F93CF93DF93A2
:10063000F82EC0E0D0E001E010E0C62EDD246C2FE3
:100640006C5FC8010C2E02C0880F991F0A94E2F754
:100650008C219D219C010C2E02C0359527950A9472
:10066000E2F7A9018F2D0E9416012196C430D10511
:1006700031F7DF91CF911F910F91FF90DF90CF90D5
:100680000895CF92DF92EF92FF920F931F93CF9333
:10069000DF93082F162FC0E0D0E0EE24FF24E39470
:1006A000C42EDD246C2F610FC7010C2E02C0880FF1
:1006B000991F0A94E2F78C219D219C010C2E02C007
:1006C000359527950A94E2F7A901802F0E9416011B
:1006D0002196C430D10531F7DF91CF911F910F9151
:1006E000FF90EF90DF90CF900895CF92DF92EF923E
:1006F000FF920F931F93CF93DF93082F162FC0E025
:10070000D0E0EE24FF24E394C42EDD246C2F610F8F
:10071000C7010C2E02C0880F991F0A94E2F78C21A2
:100720009D219C010C2E02C0359527950A94E2F775
:10073000A901802F0E947B002196C430D10531F79A
:10074000DF91CF911F910F91FF90EF90DF90CF90AD
:10075000089584E660E041E00E947B0084E661E069
:1007600041E00E947B0084E662E041E00E947B0061
:1007700084E663E041E00E947B0084E664E040E0C0
:100780000E947B0084E665E040E00E947B0084E6F6
:1007900066E040E00E947B0084E667E040E00E9463
:1007A0007B0084E664E041E00E94DF0284E665E0CD
:1007B00041E00E94DF0284E666E041E00E94DF0241
:1007C00084E667E041E00E94DF0208950F931F93E3
:1007D000CF93DF93CDB7DEB760970FB6F894DEBF47
:1007E0000FBECDBFDE011196E0E7F0E080E10190A1
:1007F0000D928150E1F700E084E660E041E00E9464
:10080000160184E661E041E00E94160184E662E0A0
:1008100041E00E94160184E663E041E00E94160177
:1008200084E6602F40E00E94160110E0612F6C5FAB
:1008300084E60E94F401882361F4E02FF0E0EE0FDB
:10084000FF1FEE0FFF1FE10FF11DEC0FFD1F818158
:1008500004C01F5F143051F70BC060960FB6F894B8
:10086000DEBF0FBECDBFDF91CF911F910F910895D5
:100870000F5F043009F68FEFF0CF81E460E041E0D4
:100880000E9416018FE99FE00197F1F700C0000078
:1008900081E460E040E00E9416018FE99FE001974B
:1008A000F1F700C000000895CF93C82F81E462E003
:1008B00040E00E9416016C2F62956F7081E40E94E7
:1008C00011030E943D0481E46C2F0E9411030E94D9
:1008D0003D04CF910895982F9150923060F4662393
:1008E00061F0613160F4813019F4862F815808C0BD
:1008F000862F815405C080E803C080E801C080E8ED
:100900000E945404089582E00E9454048FE19EE402
:100910000197F1F700C00000089581E00E9454049F
:100920008FE19EE40197F1F700C0000008958FEF7A
:1009300091EEA4E081509040A040E1F700C000009B
:1009400081E464E041E00E947B0081E465E041E0F5
:100950000E947B0081E466E041E00E947B0081E42C
:1009600067E041E00E947B0081E462E041E00E9498
:100970007B0081E460E041E00E947B000E948304F0
:1009800088E20E9454048EE00E9454040E948D0468
:1009900086E00E9454040895CF93C82F81E462E05A
:1009A00041E00E9416016C2F62956F7081E40E94F5
:1009B00011030E943D0481E46C2F0E9411030E94E8
:1009C0003D04CF910895CF93DF93EC018881882374
:1009D00061F021960E94CC048FEC97E00197F1F72B
:1009E00000C0000089918823A9F7DF91CF91089575
:1009F00041E00E947B00089541E00E9416010895A5
:100A000040E00E94160108950E94A70108950E94E7
:100A1000F40108950E94590208950E94B8020895B1
:100A200081E663E00E94F80481E690E061E070E016
:100A30000E946F0082E60E9449000E94A9030E9462
:100A400097040E94A70883E660E041E00E947B00D3
:100A500083E661E041E00E947B0083E662E041E0E2
:100A60000E947B0083E663E041E00E947B0083E616
:100A700064E041E00E947B0083E665E041E00E9483
:100A80007B0080E890E00E94E30482E066E00E9440
:100A90006B0481E990E00E94E3040DE910E00F2E61
:100AA000F0E8EF2EF0E0FF2EF02D0F2EF1E9CF2E23
:100AB000F0E0DF2EF02DC1E0DAE00F2EFCE3BF2ED8
:100AC000F02D0E94E6038093FA008F3FC9F1813335
:100AD00041F489B7806489BF1092F7000E946007D3
:100AE0002FC0823351F489B7806489BF1092FB0014
:100AF000C093F7000E94600723C08FEF94E3ACE03F
:100B000081509040A040E1F700C000000E948D0499
:100B1000C8010E94E3048FEF94E3ACE08150904061
:100B2000A040E1F700C000000E948D04C7010E94B0
:100B3000E30482E066E00E946B04C6010E94E304C5
:100B400083E660E040E00E94160183E66C2F4C2FA4
:100B50000E94160183E662E04C2F0E94160183E694
:100B600063E04C2F0E94160183E664E04C2F0E9444
:100B7000160183E665E04C2F0E9416018091F90072
:100B80006D2F0E94B50882E6692F0E944D00AFE0EC
:100B9000B7E21197F1F700C0000083E660E04C2F48
:100BA0000E94160183E66C2F40E00E94160183E646
:100BB00062E04C2F0E94160183E663E04C2F0E94F6
:100BC000160183E664E04C2F0E94160183E665E07F
:100BD0004C2F0E9416018091F9006D2F0E94B508DC
:100BE000682F82E60E944D008FE097E20197F1F7AF
:100BF00000C0000083E660E04C2F0E94160183E6EF
:100C00006C2F4C2F0E94160183E662E040E00E94A8
:100C1000160183E663E04C2F0E94160183E664E030
:100C20004C2F0E94160183E665E04C2F0E941601AE
:100C30008091F8006D2F0E94B50882E6692F0E940E
:100C40004D00AFE0B7E21197F1F700C0000083E676
:100C500060E04C2F0E94160183E66C2F4C2F0E94FF
:100C6000160183E662E04C2F0E94160183E663E0E2
:100C700040E00E94160183E664E04C2F0E941601BA
:100C800083E665E04C2F0E9416018091F8006D2FDD
:100C90000E94B508682F82E60E944D008FE097E21F
:100CA0000197F1F700C0000083E660E04C2F0E943E
:100CB000160183E66C2F4C2F0E94160183E662E03A
:100CC0004C2F0E94160183E663E04C2F0E94160110
:100CD00083E664E040E00E94160183E665E04C2F65
:100CE0000E9416018091F6006D2F0E94B50882E6E1
:100CF000692F0E944D00AFE0B7E21197F1F700C0F5
:100D0000000083E660E04C2F0E94160183E66C2F02
:100D10004C2F0E94160183E662E04C2F0E941601C0
:100D200083E663E04C2F0E94160183E664E04C2FBB
:100D30000E94160183E665E040E00E941601809162
:100D4000F6006D2F0E94B508682F82E60E944D00C4
:100D50008FE097E20197F1F700C000008091F70063
:100D6000882389F58091F9008C3338F01092F900CE
:100D70008091F8008F5F8093F8008091F8008C33A9
:100D800038F01092F8008091F6008F5F8093F600A3
:100D90008091F600883111F41092F60081E690E01F
:100DA00061E070E00E9476008130910531F410928C
:100DB000F6001092F8001092F9008091FB0081304B
:100DC00009F07FCE3AC08091F7008130B1F7809171
:100DD000FB00882391F78091F900882379F48091B2
:100DE000F800882359F48091F600882339F489B7F4
:100DF0008F7B89BFC093FB001092F7008091F900B0
:100E0000882349F48091F800882349F0B092F900D2
:100E100081508093F8008091F800882371F68091CA
:100E2000F600882351F29091F900992331F6B0929F
:100E3000F80081508093F600C0CF81E690E061E039
:100E400070E00E9476008093F300813039F481E6EF
:100E500063E00E9400051092FB0033CE81E663E060
:100E60000E9404058FEF90E7A2E081509040A040DF
:100E7000E1F700C000008091FB00813009F021CE35
:100E8000DCCF1F920F920FB60F9211248F93809197
:100E9000F700882331F48091F9008F5F8093F90087
:100EA00009C08091F700813029F48091F9008150C8
:100EB0008093F9008F910F900FBE0F901F9018959F
:100EC0008FEF92E5A7E081509040A040E1F700C08D
:100ED00000000E948D048AEA90E00E94E3040E94D0
:100EE000E6038093F5008F3FD1F381E090E06AE064
:100EF00070E00E946B048091F50090E00E94CC04A9
:100F00008FEF92E5A7E081509040A040E1F700C04C
:100F100000000E94E6038093F4008F3FD1F381E04C
:100F200090E06BE070E00E946B048091F40090E030
:100F30000E94CC049091F40090518091F500880FAC
:100F4000282F220F220F820F890F8093F6008FEF38
:100F50008093F5008093F4008FEF92E5A7E0815035
:100F60009040A040E1F700C000000E948D0486EB95
:100F700090E00E94E3040E94E6038093F5008F3F17
:100F8000D1F381E090E06DE070E00E946B0480910D
:100F9000F50090E00E94CC048FEF92E5A7E081502D
:100FA0009040A040E1F700C000000E94E60380935B
:100FB000F4008F3FD1F381E090E06EE070E00E949A
:100FC0006B048091F40090E00E94CC049091F400B6
:100FD00090518091F500880F282F220F220F820F49
:100FE000890F8093F8008FEF8093F5008093F400D1
:100FF0008FEF94E3ACE081509040A040E1F700C057
:1010000000000E948D0485EC90E00E94E3040E94A1
:10101000E6038093F5008F3FD1F381E090E06DE02F
:1010200070E00E946B048091F50090E00E94CC0477
:101030008FEF92E5A7E081509040A040E1F700C01B
:1010400000000E94E6038093F4008F3FD1F381E01B
:1010500090E06EE070E00E946B048091F40090E0FC
:101060000E94CC049091F40090518091F500880F7B
:10107000282F220F220F820F890F8093F9008FEF04
:101080008093F5008093F4008FEF94E3ACE08150FF
:101090009040A040E1F700C000000E948D0484ED64
:1010A00090E00E94E30482E090E066E070E00E943D
:1010B0006B0485EE90E00E94E304089583B7886096
:1010C00083BF83B7816083BF83B7846083BF80E5BC
:1010D0008CBF789489B7826089BF0895BB9A83B723
:1010E000886083BF80E48CBF83B7816083BF83B790
:1010F000846083BF83B7806183BF0895BB9A83B741
:10110000806483BF83B7886083BF80E48CBF83B76C
:10111000816083BF83B7846083BF83B7806183BFEF
:1011200083B7806283BF0895BB9A83B7806483BF0F
:1011300080E48CBF83B7816083BF83B7846083BF43
:1011400083B7806183BF83B7806283BF089582B510
:10115000886082BD85B5816085BD85B5846085BDAB
:10116000789489B7806489BF0895991B79E004C099
:10117000991F961708F0961B881F7A95C9F78095D6
:061180000895F894FFCF72
:101186003F065B4F666D7D077F6F777C395E7971B1
:101196003738392F3435362A3132332D41303D2B0D
:1011A600707265737320312F73657420636C6B20C6
:1011B60000322F73657420616C61726D0057726F17
:1011C6006E672043686F6963650053657420686FB6
:1011D60075723A2D2D00536574206D696E757465B0
:1011E600733A2D2D00536574207365636F6E6473B7
:1011F6003A2D2D00707265737320312F736574203C
:10120600636C6B2000322F73657420616C61726DA4
:021216000000D6
:00000001FF
