S019000054656D7065726174757265206D657465722E7372656340
S11300000C942A000C9447000C9447000C9447006D
S11300100C9447000C9447000C9447000C94470040
S11300200C9447000C9447000C9447000C94470030
S11300300C9447000C9447000C9447000C94470020
S11300400C9447000C9447000C9447000C94470010
S11300500C94470011241FBECFE5D8E0DEBFCDBF0E
S113006010E0A0E6B0E0EAE9FBE002C005900D92E2
S1130070AE36B107D9F710E0AEE6B0E001C01D928C
S1130080AE36B107E1F70E944E040C94CB050C94F4
S113009000003E9A3F9A379A319A329A0895369AD6
S11300A0349BFECF349A84B190E045B1342F20E0E4
S11300B0822B932B0895843409F479C0853448F451
S11300C08234B1F1833408F053C0813409F08DC017
S11300D00FC0823669F1833620F4813609F085C079
S11300E007C0833609F444C0843609F07EC05FC07B
S11300F0413069F42AB381E090E0AC0102C0440FBE
S1130100551F6A95E2F7BA01622B6ABB089544232E
S113011009F06BC02AB381E090E0AC0102C0440F47
S1130120551F6A95E2F7BA01609562236ABB089588
S1130130413069F427B381E090E0AC0102C0440F80
S1130140551F6A95E2F7BA01622B67BB08954423F1
S113015009F04BC027B381E090E0AC0102C0440F2A
S1130160551F6A95E2F7BA016095622367BB08954B
S1130170413069F424B381E090E0AC0102C0440F43
S1130180551F6A95E2F7BA01622B64BB08954423B4
S113019061F524B381E090E0AC0102C0440F551F27
S11301A06A95E2F7BA016095622364BB0895413011
S11301B069F421B381E090E0AC0102C0440F551F03
S11301C06A95E2F7BA01622B61BB0895442369F48E
S11301D021B381E090E0AC0102C0440F551F6A9541
S11301E0E2F7BA016095622361BB0895843409F48F
S11301F071C0853448F4823499F1833408F04DC0D9
S1130200813409F083C00FC0823651F1833620F463
S1130210813609F07BC007C0833609F43EC08436BA
S113022009F074C057C0413069F42BB381E090E009
S1130230AC0102C0440F551F6A95E2F7BA01622B64
S11302406BBB08952BB381E090E0AC0102C0440F76
S1130250551F6A95E2F7BA01609562236BBB089556
S1130260413069F428B381E090E0AC0102C0440F4E
S1130270551F6A95E2F7BA01622B68BB089528B34B
S113028081E090E0AC0102C0440F551F6A95E2F78B
S1130290BA016095622368BB0895413069F425B3BF
S11302A081E090E0AC0102C0440F551F6A95E2F76B
S11302B0BA01622B65BB089525B381E090E0AC01DF
S11302C002C0440F551F6A95E2F7BA016095622394
S11302D065BB0895413069F422B381E090E0AC013C
S11302E002C0440F551F6A95E2F7BA01622B62BB44
S11302F0089522B381E090E0AC0102C0440F551F81
S11303006A95E2F7BA016095622362BB089584346A
S113031009F43DC0853440F48234F9F0833450F557
S1130320813409F040C00CC08236B9F0833618F429
S11303308136C9F505C08336E9F08436A1F527C0B6
S11303402BB381E090E0AC0102C0440F551F6A95C5
S1130350E2F7BA0162276BBB089528B381E090E00D
S1130360AC0102C0440F551F6A95E2F7BA01622737
S113037068BB089525B381E090E0AC0102C0440F4E
S1130380551F6A95E2F7BA01622765BB089522B347
S113039081E090E0AC0102C0440F551F6A95E2F77A
S11303A0BA01622762BB0895843409F44EC08534CF
S11303B040F4823431F18334B0F5813409F057C00C
S11303C00EC08236F1F0833620F4813609F04FC036
S11303D006C0833641F1843609F049C036C029B3DA
S11303E081E090E0062E02C0880F991F0A94E2F77C
S11303F030E08223932302C0959587956A95E2F7AE
S1130400089526B381E090E0062E02C0880F991F5C
S11304100A94E2F730E08223932302C095958795EE
S11304206A95E2F7089523B381E090E0062E02C0B6
S1130430880F991F0A94E2F730E08223932302C0C5
S1130440959587956A95E2F7089520B381E090E049
S1130450062E02C0880F991F0A94E2F730E0822327
S1130460932302C0959587956A95E2F7089580E0F5
S113047008958434D9F0853438F4823499F083347F
S113048098F48134A1F40CC0823661F0833618F4F8
S1130490813669F405C0833639F0843641F406C0E8
S11304A06ABB089567BB089564BB089561BB089552
S11304B08434D9F0853438F4823499F0833498F450
S11304C08134A1F40CC0823661F0833618F481368D
S11304D069F405C0833639F0843641F406C06BBB39
S11304E0089568BB089565BB089562BB089584347C
S11304F0D9F0853438F4823499F0833498F4813413
S1130500A9F40CC0823661F0833618F4813671F494
S113051005C0833639F0843649F406C089B308959A
S113052086B3089583B3089580B3089580E0089551
S1130530843409F1853438F48234A9F08334B8F46E
S11305408134E1F40CC0823671F0833618F48136BC
S1130550A9F405C0833659F0843681F40CC08BB3FA
S113056080958BBB089588B3809588BB089585B327
S1130570809585BB089582B3809582BB08950E94BF
S1130580F6000895CF92DF92FF920F931F93CF93BB
S1130590DF93F82EC0E0D0E001E010E0C62EDD24A9
S11305A0C8010C2E02C0880F991F0A94E2F78C210F
S11305B09D219C010C2E02C0359527950A94E2F7E3
S11305C0A9018F2D6C2F0E94F6002196C430D1050D
S11305D039F7DF91CF911F910F91FF90DF90CF906A
S11305E00895CF92DF92FF920F931F93CF93DF93DF
S11305F0F82EC0E0D0E001E010E0C62EDD246C2F20
S11306006C5FC8010C2E02C0880F991F0A94E2F790
S11306108C219D219C010C2E02C0359527950A94AE
S1130620E2F7A9018F2D0E94F6002196C430D1056E
S113063031F7DF91CF911F910F91FF90DF90CF9011
S11306400895CF92DF92EF92FF920F931F93CF936F
S1130650DF93082F162FC0E0D0E0EE24FF24E394AC
S1130660C42EDD246C2F610FC7010C2E02C0880F2D
S1130670991F0A94E2F78C219D219C010C2E02C043
S1130680359527950A94E2F7A901802F0E94F60078
S11306902196C430D10531F7DF91CF911F910F918D
S11306A0FF90EF90DF90CF900895CF92DF92EF927A
S11306B0FF920F931F93CF93DF93082F162FC0E061
S11306C0D0E0EE24FF24E394C42EDD246C2F610FCC
S11306D0C7010C2E02C0880F991F0A94E2F78C21DF
S11306E09D219C010C2E02C0359527950A94E2F7B2
S11306F0A901802F0E945B002196C430D10531F7F7
S1130700DF91CF911F910F91FF90EF90DF90CF90E9
S1130710089582E460E041E00E94F6008FE99FE0E2
S11307200197F1F700C0000082E460E040E00E941D
S1130730F6008FE99FE00197F1F700C000000895EB
S1130740CF93C82F82E461E040E00E94F6006C2F52
S113075062956F7084E40E94F1020E94890384E42C
S11307606C2F0E94F1020E948903CF910895982F63
S11307709150923060F4662361F0613160F481300D
S113078019F4862F815808C0862F815405C080E84B
S113079003C080E801C080E80E94A003089582E0BD
S11307A00E94A0038FE19EE40197F1F700C00000CE
S11307B0089581E00E94A0038FE19EE40197F1F780
S11307C000C0000008958FEF91EEA4E081509040A6
S11307D0A040E1F700C0000084E464E041E00E942E
S11307E05B0084E465E041E00E945B0084E466E031
S11307F041E00E945B0084E467E041E00E945B000A
S113080082E461E041E00E945B0082E460E041E058
S11308100E945B0082E462E041E00E945B0082E4AB
S113082062E040E00E94F6000E94CF0388E20E944A
S1130830A0038CE00E94A0030E94D90386E00E94DA
S1130840A0030895CF93C82F82E461E041E00E94A1
S1130850F6006C2F62956F7084E40E94F1020E948E
S1130860890384E46C2F0E94F1020E948903CF91D2
S11308700895CF93DF93EC018881882361F021965A
S11308800E9422048FEC97E00197F1F700C000006A
S113089089918823A9F7DF91CF9108950E94E303FA
S11308A00E94490080E690E00E943904D4E6CAE040
S11308B00E944F00BC0180E090E00E94CE0420E042
S11308C030E040E85EE30E9434050E94A204162F43
S11308D081E06DE00E94B7031A3028F4812F805D17
S11308E00E94220425C0143668F4812F6C2F0E94C4
S11308F0BF05192F805D0E942204812F805D0E9414
S1130900220416C0812F6D2F0E94BF05805D0E94B6
S11309102204812F6C2F0E94BF05192F0E94BF054E
S1130920892F805D0E942204812F805D0E94220411
S11309308FED0E94220483E40E94220480E20E943C
S11309402204B6CF70D088F09F5790F0B92F992722
S1130950B751A0F0D1F0660F771F881F991F1AF0C6
S1130960BA95C9F712C0B13081F077D0B1E00895DB
S113097074C0672F782F8827B85F39F0B93FCCF35C
S1130980869577956795B395D9F73EF490958095BC
S1130990709561957F4F8F4F9F4F0895E89409C0DC
S11309A097FB3EF490958095709561957F4F8F4F9E
S11309B09F4F9923A9F0F92F96E9BB279395F695B4
S11309C0879577956795B795F111F8CFFAF4BB0F32
S11309D011F460FF1BC06F5F7F4F8F4F9F4F16C096
S11309E0882311F096E911C0772321F09EE8872F20
S11309F0762F05C0662371F096E8862F70E060E0DC
S1130A002AF09A95660F771F881FDAF7880F969554
S1130A10879597F9089557FD9058440F551F59F03D
S1130A205F3F71F04795880F97FB991F61F09F3FD7
S1130A3079F087950895121613061406551FF2CF00
S1130A404695F1DF08C0161617061806991FF1CF50
S1130A5086957105610508940895E894BB27662777
S1130A607727CB0197F908950BD078C069D028F087
S1130A706ED018F0952309F05AC05FC01124EECF50
S1130A80CADFA0F3959FD1F3950F50E0551F629FE5
S1130A90F001729FBB27F00DB11D639FAA27F00DD3
S1130AA0B11DAA1F649F6627B00DA11D661F829FFA
S1130AB02227B00DA11D621F739FB00DA11D621FDF
S1130AC0839FA00D611D221F749F3327A00D611DFC
S1130AD0231F849F600D211D822F762F6A2F1124DE
S1130AE09F5750408AF0E1F088234AF0EE0FFF1F31
S1130AF0BB1F661F771F881F91505040A9F79E3F68
S1130B00510570F014C0AACF5F3FECF3983EDCF3BC
S1130B10869577956795B795F795E7959F5FC1F7A4
S1130B20FE2B880F911D9695879597F9089597F94F
S1130B309F6780E870E060E008959FEF80EC08957F
S1130B4000240A94161617061806090608950024A8
S1130B500A9412161306140605060895092E039422
S1130B60000C11F4882352F0BB0F40F4BF2B11F496
S1130B7060FF04C06F5F7F4F8F4F9F4F0895991B95
S1130B8079E004C0991F961708F0961B881F7A9580
S10D0B90C9F780950895F894FFCF8B
S1110B9A54656D70657261747572653D00007E
S9030000FC
