S0290000456C656374726F6E696320766F74696E67206D616368696E652070726F6A6563742E7372656330
S11300000C942A000C9447000C9447000C9447006D
S11300100C9447000C9447000C9447000C94470040
S11300200C9447000C9447000C9447000C94470030
S11300300C9447000C9447000C9447000C94470020
S11300400C9447000C9447000C9447000C94470010
S11300500C94470011241FBECFE5D8E0DEBFCDBF0E
S113006010E0A0E6B0E0ECEEFAE002C005900D92DC
S1130070A837B107D9F710E0A8E7B0E001C01D9296
S1130080A837B107E1F70E9483030C9474050C941C
S1130090000090E070E040E050E00E9455000895B8
S11300A090E070E00E94CE010895843409F479C090
S11300B0853448F48234B1F1833408F053C0813478
S11300C009F08DC00FC0823669F1833620F4813681
S11300D009F085C007C0833609F444C0843609F0AA
S11300E07EC05FC0413069F42AB381E090E0AC0186
S11300F002C0440F551F6A95E2F7BA01622B6ABB2E
S11301000895442309F06BC02AB381E090E0AC0168
S113011002C0440F551F6A95E2F7BA016095622345
S11301206ABB0895413069F427B381E090E0AC01E3
S113013002C0440F551F6A95E2F7BA01622B67BBF0
S11301400895442309F04BC027B381E090E0AC014B
S113015002C0440F551F6A95E2F7BA016095622305
S113016067BB0895413069F424B381E090E0AC01A9
S113017002C0440F551F6A95E2F7BA01622B64BBB3
S11301800895442361F524B381E090E0AC0102C0FA
S1130190440F551F6A95E2F7BA016095622364BB68
S11301A00895413069F421B381E090E0AC0102C0CC
S11301B0440F551F6A95E2F7BA01622B61BB08959B
S11301C0442369F421B381E090E0AC0102C0440F00
S11301D0551F6A95E2F7BA016095622361BB0895E1
S11301E0843409F471C0853448F4823499F1833439
S11301F008F04DC0813409F083C00FC0823651F13C
S1130200833620F4813609F07BC007C0833609F4B5
S11302103EC0843609F074C057C0413069F42BB332
S113022081E090E0AC0102C0440F551F6A95E2F7EB
S1130230BA01622B6BBB08952BB381E090E0AC0153
S113024002C0440F551F6A95E2F7BA016095622314
S11302506BBB0895413069F428B381E090E0AC01B0
S113026002C0440F551F6A95E2F7BA01622B68BBBE
S1130270089528B381E090E0AC0102C0440F551FFB
S11302806A95E2F7BA016095622368BB089541302C
S113029069F425B381E090E0AC0102C0440F551F1E
S11302A06A95E2F7BA01622B65BB089525B381E034
S11302B090E0AC0102C0440F551F6A95E2F7BA0101
S11302C06095622365BB0895413069F422B381E0EF
S11302D090E0AC0102C0440F551F6A95E2F7BA01E1
S11302E0622B62BB089522B381E090E0AC0102C0AE
S11302F0440F551F6A95E2F7BA016095622362BB09
S11303000895843409F43DC0853440F48234F9F00E
S1130310833450F5813409F040C00CC08236B9F002
S1130320833618F48136C9F505C08336E9F084367E
S1130330A1F527C02BB381E090E0AC0102C0440FCB
S1130340551F6A95E2F7BA0162276BBB089528B37B
S113035081E090E0AC0102C0440F551F6A95E2F7BA
S1130360BA01622768BB089525B381E090E0AC012F
S113037002C0440F551F6A95E2F7BA01622765BBB4
S1130380089522B381E090E0AC0102C0440F551FF0
S11303906A95E2F7BA01622762BB0895843409F4CE
S11303A04EC0853440F4823431F18334B0F5813465
S11303B009F057C00EC08236F1F0833620F481363E
S11303C009F04FC006C0833641F1843609F049C0B4
S11303D036C029B381E090E0062E02C0880F991F31
S11303E00A94E2F730E08223932302C0959587951F
S11303F06A95E2F7089526B381E090E0062E02C0E4
S1130400880F991F0A94E2F730E08223932302C0F5
S1130410959587956A95E2F7089523B381E090E076
S1130420062E02C0880F991F0A94E2F730E0822357
S1130430932302C0959587956A95E2F7089520B3B2
S113044081E090E0062E02C0880F991F0A94E2F71B
S113045030E08223932302C0959587956A95E2F74D
S1130460089580E008958434D9F0853438F48234D2
S113047099F0833498F48134A1F40CC0823661F08D
S1130480833618F4813669F405C0833639F084362E
S113049041F406C06ABB089567BB089564BB089520
S11304A061BB08958434D9F0853438F4823499F0EA
S11304B0833498F48134A1F40CC0823661F083361D
S11304C018F4813669F405C0833639F0843641F472
S11304D006C06BBB089568BB089565BB089562BBF5
S11304E008958434D9F0853438F4823499F083340F
S11304F098F48134A9F40CC0823661F0833618F480
S1130500813671F405C0833639F0843649F406C067
S113051089B3089586B3089583B3089580B3089585
S113052080E00895843409F1853438F48234A9F0E4
S11305308334B8F48134E1F40CC0823671F083362C
S113054018F48136A9F405C0833659F0843681F451
S11305500CC08BB380958BBB089588B3809588BB02
S1130560089585B3809585BB089582B3809582BB39
S113057008950E94F0000895CF92DF92FF920F93A6
S11305801F93CF93DF93F82EC0E0D0E001E010E09A
S1130590C62EDD24C8010C2E02C0880F991F0A94B0
S11305A0E2F78C219D219C010C2E02C035952795E4
S11305B00A94E2F7A9018F2D6C2F0E94F000219676
S11305C0C430D10539F7DF91CF911F910F91FF907E
S11305D0DF90CF900895CF92DF92FF920F931F93F5
S11305E0CF93DF93F82EC0E0D0E001E010E0C62EF8
S11305F0DD246C2F6C5FC8010C2E02C0880F991F7C
S11306000A94E2F78C219D219C010C2E02C03595A1
S113061027950A94E2F7A9018F2D0E94F0002196F4
S1130620C430D10531F7DF91CF911F910F91FF9025
S1130630DF90CF900895CF92DF92EF92FF920F93C5
S11306401F93CF93DF93082F162FC0E0D0E0EE2442
S1130650FF24E394C42EDD246C2F610FC7010C2EFC
S113066002C0880F991F0A94E2F78C219D219C01F6
S11306700C2E02C0359527950A94E2F7A901802F24
S11306800E94F0002196C430D10531F7DF91CF915B
S11306901F910F91FF90EF90DF90CF900895CF922C
S11306A0DF92EF92FF920F931F93CF93DF93082F64
S11306B0162FC0E0D0E0EE24FF24E394C42EDD2402
S11306C06C2F610FC7010C2E02C0880F991F0A946A
S11306D0E2F78C219D219C010C2E02C035952795B3
S11306E00A94E2F7A901802F0E9455002196C43094
S11306F0D10531F7DF91CF911F910F91FF90EF90CA
S1130700DF90CF9008950E94FD0481E063E00E9491
S1130710D10480E690E00E9453058FEF93EDA0E3AF
S113072081509040A040E1F700C000000E94F30413
S113073084E666E00E94490084E665E00E94490080
S113074084E664E00E9449008CE690E00E94530530
S113075081E069E00E94D1048FE690E00E94530595
S113076082E061E00E94D10482E790E00E94530598
S113077082E069E00E94D10485E790E00E9453057D
S113078081E063E00E94D10480E30E943C0581E0A3
S11307906BE00E94D10480E30E943C0582E063E0A8
S11307A00E94D10480E30E943C0582E06BE00E9439
S11307B0D10480E30E943C0500E010E00F2EFCE62B
S11307C0CF2EF0E0DF2EF02D0F2EFFE6AF2EF0E05F
S11307D0BF2EF02D0F2EF2E78F2EF0E09F2EF02D7E
S11307E00F2EF5E76F2EF0E07F2EF02DEE240F2E66
S11307F0FAE0FF2EF02D84E666E00E94500081307E
S113080029F58FE799EAA3E081509040A040E1F7F1
S113081000C00000C12FCF5F81E063E00E94D104DB
S1130820CA3030F4812F8F5C0E943C051C2F81C09C
S11308308C2F6F2D0E946805D92F805D0E943C0586
S11308408D2F805D0E943C051C2F73C084E665E0FB
S11308500E945000813029F58FE799EAA3E0815086
S11308609040A040E1F700C00000C02FCF5F81E0BE
S11308706BE00E94D104CA3030F4802F8F5C0E9458
S11308803C050C2F56C08C2F6F2D0E946805D92F64
S1130890805D0E943C058D2F805D0E943C050C2FDD
S11308A048C084E664E00E945000813009F041C0F1
S11308B08FE799EAA3E081509040A040E1F700C09F
S11308C000000E94F304C6010E94530581E069E020
S11308D00E94D104C5010E94530582E061E00E9498
S11308E0D104C4010E94530582E069E00E94D1044E
S11308F0C3010E94530581E063E00E94D10480E3B8
S11309000E943C0581E06BE00E94D10480E30E94D8
S11309103C0582E063E00E94D10480E30E943C0530
S113092082E06BE00E94D10480E30E943C050E2D1E
S11309301E2D8FE799EAA3E081509040A040E1F793
S113094000C0000058CF81E464E041E00E94F00060
S11309508FE99FE00197F1F700C0000081E464E0B3
S113096040E00E94F0008FE99FE00197F1F700C09A
S113097000000895CF93C82F81E466E040E00E9410
S1130980F0006C2F62956F7081E40E94BC020E949B
S1130990A30481E46C2F0E94BC020E94A304CF91A3
S11309A00895982F9150923060F4662361F061317C
S11309B060F4813019F4862F815808C0862F815441
S11309C005C080E803C080E801C080E80E94BA0442
S11309D0089582E00E94BA048FE19EE40197F1F742
S11309E000C00000089581E00E94BA048FE19EE4F3
S11309F00197F1F700C0000008958FEF91EEA4E095
S1130A0081509040A040E1F700C0000081E460E024
S1130A1041E00E94550081E461E041E00E945500FC
S1130A2081E462E041E00E94550081E463E041E03A
S1130A300E94550081E466E041E00E94550081E493
S1130A4064E041E00E94550081E465E041E00E94D9
S1130A50550081E465E040E00E94F0000E94E90452
S1130A6088E20E94BA048CE00E94BA040E94F30453
S1130A7086E00E94BA040895CF93C82F81E466E00B
S1130A8041E00E94F0006C2F62956F7081E40E9437
S1130A90BC020E94A30481E46C2F0E94BC020E9449
S1130AA0A304CF910895CF93DF93EC018881882329
S1130AB061F021960E943C058FEC97E00197F1F7D5
S1130AC000C0000089918823A9F7DF91CF91089590
S1130AD0991B79E004C0991F961708F0961B881F8C
S10F0AE07A95C9F780950895F894FFCF2B
S1130AEC45564D2050726F6A65637400413D004257
S10B0AFC3D00433D00443D00B0
S9030000FC
