:100000000C942A000C9447000C9447000C94470071
:100010000C9447000C9447000C9447000C94470044
:100020000C9447000C9447000C9447000C94470034
:100030000C9447000C9447000C9447000C94470024
:100040000C9447000C9447000C9447000C94470014
:100050000C94470011241FBECFE5D8E0DEBFCDBF12
:1000600010E0A0E6B0E0E6EAFDE002C005900D92E7
:10007000AC38B107D9F710E0ACE8B0E001C01D9290
:10008000AD38B107E1F70E9449000C94D1060C94F9
:100090000000CF93DF9300D000D0CDB7DEB70E9431
:1000A00051050E943F0681E064E00E94130680E64D
:1000B00090E00E9495062FEF39E648E1215030404C
:1000C0004040E1F700C000000E943506FF24F39491
:1000D000CC24DD246894C1F8CC0EDD1EEE24E3941C
:1000E0000F2EFAE0AF2EBB24F02D0F2EFBE66F2E65
:1000F000F0E07F2EF02D0F2EF8EE2F2EF3E03F2EA6
:10010000F02D0F2EF4E64F2E5524F02D0F2EF0E398
:100110009F2EF02D27C00F2D112707FD109541E0D0
:1001200050E04C0F5D1F040F151F8FE799EAA3E005
:1001300081509040A040E1F700C000000E948E0571
:10014000D8018C938F3F89F32FE739EA43E02150A0
:1001500030404040E1F700C000000E947E06FA9463
:1001600001C0FE2CFF20BCF6F9803BE2F31649F0FB
:100170004DE2F41631F05AE2F51619F08FE2F81656
:1001800021F48A8189839A821BC02FE739EA43E0F0
:10019000215030404040E1F700C000000E948E0531
:1001A000F82E3FEF831789F38FE799EAA3E0815098
:1001B0009040A040E1F700C000008F2D0E947E0615
:1001C0008E010C5F1F4F2FE739EA43E0215030408A
:1001D0004040E1F700C000000E948E05D8018C93DA
:1001E0008F3F89F32FE739EA43E021503040404008
:1001F000E1F700C000000E947E06015010400C157F
:100200001D0509F78FEF94E3ACE081509040A040CA
:10021000E1F700C000008B818D3321F48C818B834A
:100220009C8218C02FE739EA43E02150304040401B
:10023000E1F700C000000E948E058F3F99F32FE781
:1002400039EA43E0215030404040E1F700C000006F
:100250000E947E068A8190E0880F991F9C01220FE0
:10026000331F220F331F820F931F2981820F911D8D
:10027000AC01405152408C8190E0880F991F9C0145
:10028000220F331F220F331F820F931F2B81820FE8
:10029000911DBC01605172403BE2F31679F03F15AD
:1002A00028F08AE2F81609F0AAC03FC09DE2F916CC
:1002B000A9F0AFE2FA1609F0A2C090C0CA01860FF9
:1002C000971FB5010E94AA06082F862F805D0E9405
:1002D0007E06802F805D0E947E0698C06417750799
:1002E00084F4CA01861B970BB5010E94AA06082F49
:1002F000862F805D0E947E06802F805D0E947E0694
:1003000085C08B01041B150B8DE20E947E06C8017F
:10031000B5010E94AA06082F862F805D0E947E06E6
:10032000802F805D0E947E0671C0469F9001479F8E
:10033000300D569F300D1124C9018D599F4F873CB8
:10034000910570F4C901B5010E94AA06082F862FF5
:10035000805D0E947E06802F805D0E947E0656C0D2
:10036000C90189519C4FB7E08F3C9B07B8F4C90184
:10037000B2010E94AA068C01862F805D0E947E0633
:10038000C801B5010E94AA06082F862F805D0E9431
:100390007E06802F805D0E947E0638C0C901B101B3
:1003A0000E94AA068C01862F805D0E947E06C801ED
:1003B000B2010E94AA068C01862F805D0E947E06F3
:1003C000C801B5010E94AA06082F862F805D0E94F1
:1003D0007E06802F805D0E947E0618C0CA010E94A2
:1003E000AA06CB01B5010E94AA06082F862F805DC0
:1003F0000E947E06802F805D0E947E0607C082E0FC
:100400006E2D0E941306C3010E9495062FE739EA5C
:1004100043E0215030404040E1F700C000000E941E
:100420008E058F3F99F32FE739EA43E021503040A2
:100430004040E1F700C00000833209F092CE0E94F4
:100440003506FE2C8FCE843409F479C0853448F407
:100450008234B1F1833408F053C0813409F08DC087
:100460000FC0823669F1833620F4813609F085C0E9
:1004700007C0833609F444C0843609F07EC05FC0EB
:10048000413069F42AB381E090E0AC0102C0440F2E
:10049000551F6A95E2F7BA01622B6ABB089544239F
:1004A00009F06BC02AB381E090E0AC0102C0440FB8
:1004B000551F6A95E2F7BA01609562236ABB0895F9
:1004C000413069F427B381E090E0AC0102C0440FF1
:1004D000551F6A95E2F7BA01622B67BB0895442362
:1004E00009F04BC027B381E090E0AC0102C0440F9B
:1004F000551F6A95E2F7BA016095622367BB0895BC
:10050000413069F424B381E090E0AC0102C0440FB3
:10051000551F6A95E2F7BA01622B64BB0895442324
:1005200061F524B381E090E0AC0102C0440F551F97
:100530006A95E2F7BA016095622364BB0895413081
:1005400069F421B381E090E0AC0102C0440F551F73
:100550006A95E2F7BA01622B61BB0895442369F4FE
:1005600021B381E090E0AC0102C0440F551F6A95B1
:10057000E2F7BA016095622361BB0895843409F4FF
:1005800071C0853448F4823499F1833408F04DC049
:10059000813409F083C00FC0823651F1833620F4D4
:1005A000813609F07BC007C0833609F43EC084362B
:1005B00009F074C057C0413069F42BB381E090E07A
:1005C000AC0102C0440F551F6A95E2F7BA01622BD5
:1005D0006BBB08952BB381E090E0AC0102C0440FE7
:1005E000551F6A95E2F7BA01609562236BBB0895C7
:1005F000413069F428B381E090E0AC0102C0440FBF
:10060000551F6A95E2F7BA01622B68BB089528B3BB
:1006100081E090E0AC0102C0440F551F6A95E2F7FB
:10062000BA016095622368BB0895413069F425B32F
:1006300081E090E0AC0102C0440F551F6A95E2F7DB
:10064000BA01622B65BB089525B381E090E0AC014F
:1006500002C0440F551F6A95E2F7BA016095622304
:1006600065BB0895413069F422B381E090E0AC01AC
:1006700002C0440F551F6A95E2F7BA01622B62BBB4
:10068000089522B381E090E0AC0102C0440F551FF1
:100690006A95E2F7BA016095622362BB08958434DB
:1006A00009F43DC0853440F48234F9F0833450F5C8
:1006B000813409F040C00CC08236B9F0833618F49A
:1006C0008136C9F505C08336E9F08436A1F527C027
:1006D0002BB381E090E0AC0102C0440F551F6A9536
:1006E000E2F7BA0162276BBB089528B381E090E07E
:1006F000AC0102C0440F551F6A95E2F7BA016227A8
:1007000068BB089525B381E090E0AC0102C0440FBE
:10071000551F6A95E2F7BA01622765BB089522B3B7
:1007200081E090E0AC0102C0440F551F6A95E2F7EA
:10073000BA01622762BB0895843409F44EC085343F
:1007400040F4823431F18334B0F5813409F057C07C
:100750000EC08236F1F0833620F4813609F04FC0A6
:1007600006C0833641F1843609F049C036C029B34A
:1007700081E090E0062E02C0880F991F0A94E2F7EC
:1007800030E08223932302C0959587956A95E2F71E
:10079000089526B381E090E0062E02C0880F991FCD
:1007A0000A94E2F730E08223932302C0959587955F
:1007B0006A95E2F7089523B381E090E0062E02C027
:1007C000880F991F0A94E2F730E08223932302C036
:1007D000959587956A95E2F7089520B381E090E0BA
:1007E000062E02C0880F991F0A94E2F730E0822398
:1007F000932302C0959587956A95E2F7089580E066
:1008000008958434D9F0853438F4823499F08334EF
:1008100098F48134A1F40CC0823661F0833618F468
:10082000813669F405C0833639F0843641F406C058
:100830006ABB089567BB089564BB089561BB0895C2
:100840008434D9F0853438F4823499F0833498F4C0
:100850008134A1F40CC0823661F0833618F48136FD
:1008600069F405C0833639F0843641F406C06BBBA9
:10087000089568BB089565BB089562BB08958434EC
:10088000D9F0853438F4823499F0833498F4813483
:10089000A9F40CC0823661F0833618F4813671F405
:1008A00005C0833639F0843649F406C089B308950B
:1008B00086B3089583B3089580B3089580E00895C2
:1008C000843409F1853438F48234A9F08334B8F4DF
:1008D0008134E1F40CC0823671F0833618F481362D
:1008E000A9F405C0833659F0843681F40CC08BB36B
:1008F00080958BBB089588B3809588BB089585B398
:10090000809585BB089582B3809582BB08950E942F
:10091000BE020895CF92DF92FF920F931F93CF9361
:10092000DF93F82EC0E0D0E001E010E0C62EDD2419
:10093000C8010C2E02C0880F991F0A94E2F78C217F
:100940009D219C010C2E02C0359527950A94E2F753
:10095000A9018F2D6C2F0E94BE022196C430D105B3
:1009600039F7DF91CF911F910F91FF90DF90CF90DA
:100970000895CF92DF92FF920F931F93CF93DF934F
:10098000F82EC0E0D0E001E010E0C62EDD246C2F90
:100990006C5FC8010C2E02C0880F991F0A94E2F701
:1009A0008C219D219C010C2E02C0359527950A941F
:1009B000E2F7A9018F2D0E94BE022196C430D10515
:1009C00031F7DF91CF911F910F91FF90DF90CF9082
:1009D0000895CF92DF92EF92FF920F931F93CF93E0
:1009E000DF93082F162FC0E0D0E0EE24FF24E3941D
:1009F000C42EDD246C2F610FC7010C2E02C0880F9E
:100A0000991F0A94E2F78C219D219C010C2E02C0B3
:100A1000359527950A94E2F7A901802F0E94BE021E
:100A20002196C430D10531F7DF91CF911F910F91FD
:100A3000FF90EF90DF90CF900895CF92DF92EF92EA
:100A4000FF920F931F93CF93DF93082F162FC0E0D1
:100A5000D0E0EE24FF24E394C42EDD246C2F610F3C
:100A6000C7010C2E02C0880F991F0A94E2F78C214F
:100A70009D219C010C2E02C0359527950A94E2F722
:100A8000A901802F0E9423022196C430D10531F79D
:100A9000DF91CF911F910F91FF90EF90DF90CF905A
:100AA000089584E660E041E00E94230284E661E06C
:100AB00041E00E94230284E662E041E00E942302BA
:100AC00084E663E041E00E94230284E664E040E0C3
:100AD0000E94230284E665E040E00E94230284E64F
:100AE00066E040E00E94230284E667E040E00E9466
:100AF000230284E664E041E00E94870484E665E026
:100B000041E00E94870484E666E041E00E94870499
:100B100084E667E041E00E94870408950F931F93E5
:100B2000CF93DF93CDB7DEB760970FB6F894DEBFF3
:100B30000FBECDBFDE011196ECE7F0E080E1019041
:100B40000D928150E1F700E084E660E041E00E9410
:100B5000BE0284E661E041E00E94BE0284E662E0FB
:100B600041E00E94BE0284E663E041E00E94BE02D2
:100B700084E6602F40E00E94BE0210E0612F6C5FAF
:100B800084E60E949C03882361F4E02FF0E0EE0FDE
:100B9000FF1FEE0FFF1FE10FF11DEC0FFD1F818105
:100BA00004C01F5F143051F70BC060960FB6F89465
:100BB000DEBF0FBECDBFDF91CF911F910F91089582
:100BC0000F5F043009F68FEFF0CF81E464E041E07D
:100BD0000E94BE028FE99FE00197F1F700C000007C
:100BE00081E464E040E00E94BE028FE99FE001974B
:100BF000F1F700C000000895CF93C82F81E466E0AC
:100C000040E00E94BE026C2F62956F7081E40E94EA
:100C10008A040E94E50581E46C2F0E948A040E94E8
:100C2000E505CF910895982F9150923060F4662396
:100C300061F0613160F4813019F4862F815808C069
:100C4000862F815405C080E803C080E801C080E899
:100C50000E94FC05089582E00E94FC058FE19EE45D
:100C60000197F1F700C00000089581E00E94FC05A3
:100C70008FE19EE40197F1F700C0000008958FEF27
:100C800091EEA4E081509040A040E1F700C0000048
:100C900081E460E041E00E94230281E461E041E000
:100CA0000E94230281E462E041E00E94230281E489
:100CB00063E041E00E94230281E466E041E00E949B
:100CC000230281E464E041E00E94230281E465E0C4
:100CD00041E00E94230281E465E040E00E94BE0200
:100CE0000E942B0688E20E94FC058EE00E94FC0513
:100CF0000E94350686E00E94FC050895CF93C82F18
:100D000081E466E041E00E94BE026C2F62956F7044
:100D100081E40E948A040E94E50581E46C2F0E9410
:100D20008A040E94E505CF910895CF93DF93EC01EB
:100D30008881882361F021960E947E068FEC97E0DF
:100D40000197F1F700C0000089918823A9F7DF918E
:100D5000CF91089597FB092E07260AD077FD04D07E
:100D60000CD006D000201AF4709561957F4F08953D
:100D7000F6F7909581959F4F0895AA1BBB1B51E1F3
:100D800007C0AA1FBB1FA617B70710F0A61BB70BFB
:100D9000881F991F5A95A9F780959095BC01CD01A0
:060DA0000895F894FFCF56
:100DA60043616C63756C61746F7200696E7661691C
:100DB6006C64206F70657261746F72003132332B10
:0C0DC6003435362D3738392F2A30233DC4
:00000001FF
