:100000000C942A000C9447000C9447000C94470071
:100010000C9447000C9447000C9447000C94470044
:100020000C9447000C9447000C9447000C94470034
:100030000C9447000C9447000C9447000C94470024
:100040000C9447000C9447000C9447000C94470014
:100050000C94470011241FBECFE5D8E0DEBFCDBF12
:1000600010E0A0E6B0E0ECE8FDE002C005900D92E3
:10007000AE36B107D9F710E0AEE6B0E001C01D9290
:10008000AE36B107E1F70E944F040C94C4060C94FD
:1000900000003E9A3F9A379A319A329A3C9A0895D4
:1000A000369A349BFECF349A84B190E045B1342F18
:1000B00020E0822B932B0895843409F479C0853491
:1000C00048F48234B1F1833408F053C0813409F02C
:1000D0008DC00FC0823669F1833620F4813609F075
:1000E00085C007C0833609F444C0843609F07EC059
:1000F0005FC0413069F42AB381E090E0AC0102C0F6
:10010000440F551F6A95E2F7BA01622B6ABB089546
:10011000442309F06BC02AB381E090E0AC0102C037
:10012000440F551F6A95E2F7BA01609562236ABBD6
:100130000895413069F427B381E090E0AC0102C03A
:10014000440F551F6A95E2F7BA01622B67BB089509
:10015000442309F04BC027B381E090E0AC0102C01A
:10016000440F551F6A95E2F7BA016095622367BB99
:100170000895413069F424B381E090E0AC0102C0FD
:10018000440F551F6A95E2F7BA01622B64BB0895CC
:10019000442361F524B381E090E0AC0102C0440F38
:1001A000551F6A95E2F7BA016095622364BB089512
:1001B000413069F421B381E090E0AC0102C0440F0A
:1001C000551F6A95E2F7BA01622B61BB089544237B
:1001D00069F421B381E090E0AC0102C0440F551FE7
:1001E0006A95E2F7BA016095622361BB0895843491
:1001F00009F471C0853448F4823499F1833408F0ED
:100200004DC0813409F083C00FC0823651F183366E
:1002100020F4813609F07BC007C0833609F43EC064
:10022000843609F074C057C0413069F42BB381E0C3
:1002300090E0AC0102C0440F551F6A95E2F7BA0185
:10024000622B6BBB08952BB381E090E0AC0102C040
:10025000440F551F6A95E2F7BA01609562236BBBA4
:100260000895413069F428B381E090E0AC0102C008
:10027000440F551F6A95E2F7BA01622B68BB0895D7
:1002800028B381E090E0AC0102C0440F551F6A958D
:10029000E2F7BA016095622368BB0895413069F4C2
:1002A00025B381E090E0AC0102C0440F551F6A9570
:1002B000E2F7BA01622B65BB089525B381E090E0B7
:1002C000AC0102C0440F551F6A95E2F7BA01609570
:1002D000622365BB0895413069F422B381E090E068
:1002E000AC0102C0440F551F6A95E2F7BA01622BB8
:1002F00062BB089522B381E090E0AC0102C0440FDC
:10030000551F6A95E2F7BA016095622362BB0895B2
:10031000843409F43DC0853440F48234F9F08334E8
:1003200050F5813409F040C00CC08236B9F08336F4
:1003300018F48136C9F505C08336E9F08436A1F595
:1003400027C02BB381E090E0AC0102C0440F551FE1
:100350006A95E2F7BA0162276BBB089528B381E082
:1003600090E0AC0102C0440F551F6A95E2F7BA0154
:10037000622768BB089525B381E090E0AC0102C01C
:10038000440F551F6A95E2F7BA01622765BB0895CD
:1003900022B381E090E0AC0102C0440F551F6A9582
:1003A000E2F7BA01622762BB0895843409F44EC0B3
:1003B000853440F4823431F18334B0F5813409F06E
:1003C00057C00EC08236F1F0833620F4813609F032
:1003D0004FC006C0833641F1843609F049C036C0AB
:1003E00029B381E090E0062E02C0880F991F0A947D
:1003F000E2F730E08223932302C0959587956A95B2
:10040000E2F7089526B381E090E0062E02C0880F3F
:10041000991F0A94E2F730E08223932302C0959556
:1004200087956A95E2F7089523B381E090E0062E60
:1004300002C0880F991F0A94E2F730E082239323C9
:1004400002C0959587956A95E2F7089520B381E0FB
:1004500090E0062E02C0880F991F0A94E2F730E060
:100460008223932302C0959587956A95E2F70895B4
:1004700080E008958434D9F0853438F4823499F0DA
:10048000833498F48134A1F40CC0823661F0833651
:1004900018F4813669F405C0833639F0843641F4A6
:1004A00006C06ABB089567BB089564BB089561BB2D
:1004B00008958434D9F0853438F4823499F0833443
:1004C00098F48134A1F40CC0823661F0833618F4BC
:1004D000813669F405C0833639F0843641F406C0AC
:1004E0006BBB089568BB089565BB089562BB089512
:1004F0008434D9F0853438F4823499F0833498F414
:100500008134A9F40CC0823661F0833618F4813648
:1005100071F405C0833639F0843649F406C089B3D6
:10052000089586B3089583B3089580B3089580E055
:100530000895843409F1853438F48234A9F0833481
:10054000B8F48134E1F40CC0823671F0833618F4CB
:100550008136A9F405C0833659F0843681F40CC085
:100560008BB380958BBB089588B3809588BB089525
:1005700085B3809585BB089582B3809582BB08952D
:100580000E94F7000895CF92DF92FF920F931F937E
:10059000CF93DF93F82EC0E0D0E001E010E0C62E4C
:1005A000DD24C8010C2E02C0880F991F0A94E2F7BF
:1005B0008C219D219C010C2E02C0359527950A9413
:1005C000E2F7A9018F2D6C2F0E94F7002196C4300D
:1005D000D10539F7DF91CF911F910F91FF90DF90F7
:1005E000CF900895CF92DF92FF920F931F93CF93F6
:1005F000DF93F82EC0E0D0E001E010E0C62EDD244D
:100600006C2F6C5FC8010C2E02C0880F991F0A94D2
:10061000E2F78C219D219C010C2E02C03595279577
:100620000A94E2F7A9018F2D0E94F7002196C430A9
:10063000D10531F7DF91CF911F910F91FF90DF909E
:10064000CF900895CF92DF92EF92FF920F931F9376
:10065000CF93DF93082F162FC0E0D0E0EE24FF24C5
:10066000E394C42EDD246C2F610FC7010C2E02C051
:10067000880F991F0A94E2F78C219D219C010C2E72
:1006800002C0359527950A94E2F7A901802F0E94B0
:10069000F7002196C430D10531F7DF91CF911F913A
:1006A0000F91FF90EF90DF90CF900895CF92DF925F
:1006B000EF92FF920F931F93CF93DF93082F162F84
:1006C000C0E0D0E0EE24FF24E394C42EDD246C2FA0
:1006D000610FC7010C2E02C0880F991F0A94E2F720
:1006E0008C219D219C010C2E02C0359527950A94E2
:1006F000E2F7A901802F0E945C002196C430D10549
:1007000031F7DF91CF911F910F91FF90EF90DF9024
:10071000CF90089584E462E041E00E94F7008FE901
:100720009FE00197F1F700C0000084E462E040E040
:100730000E94F7008FE99FE00197F1F700C00000E9
:100740000895CF93C82F84E460E040E00E94F70052
:100750006C2F62956F7084E40E94F2020E948A03FB
:1007600084E46C2F0E94F2020E948A03CF910895C4
:10077000982F9150923060F4662361F0613160F4FB
:10078000813019F4862F815808C0862F815405C006
:1007900080E803C080E801C080E80E94A1030895BA
:1007A00082E00E94A1038FE19EE40197F1F700C06F
:1007B0000000089581E00E94A1038FE19EE401976B
:1007C000F1F700C0000008958FEF91EEA4E0815092
:1007D0009040A040E1F700C0000084E464E041E004
:1007E0000E945C0084E465E041E00E945C0084E4D7
:1007F00066E041E00E945C0084E467E041E00E9422
:100800005C0084E460E041E00E945C0084E462E01B
:1008100041E00E945C0084E461E041E00E945C00F1
:1008200084E461E040E00E94F7000E94D00388E287
:100830000E94A1038CE00E94A1030E94DA0386E0DB
:100840000E94A1030895CF93C82F84E460E041E0A3
:100850000E94F7006C2F62956F7084E40E94F20290
:100860000E948A0384E46C2F0E94F2020E948A0391
:10087000CF910895CF93DF93EC018881882361F0B5
:1008800021960E9423048FEC97E00197F1F700C0B6
:10089000000089918823A9F7DF91CF9108950E94E4
:1008A000E4030E94490080E690E00E943A040F2E83
:1008B000FAE0EF2EFF24F02D0F2EF4E6AF2EBB242E
:1008C000F02D0F2EF8EECF2EF3E0DF2EF02D0E944C
:1008D0005000BC0180E090E00E94970520E030E0ED
:1008E00040E250E40E9429060E946B05DC01CB0126
:1008F000EC01BC0180E090E00E94970520E030E030
:100900004AE754E40E94060520E030E0A9010E9475
:10091000250688230CF448C0CE01885E9340B701B9
:100920000E94B006C62F062F172F81E06DE00E94AF
:10093000B8030A30110528F48C2F805D0E9423042F
:1009400029C00436110570F4C801B7010E94B00631
:10095000C82F862F805D0E9423048C2F805D0E940B
:10096000230418C0C801B5010E94B006862F805D1F
:100970000E942304C801B7010E94B006C82FCB0112
:10098000B7010E94B006805D0E9423048C2F805D19
:100990000E9423048FED0E94230483E40E94230419
:1009A00080E20E94230493CFC6018C1B9D0BB701EC
:1009B0000E94B006162FC62FD72F81E06DE00E944F
:1009C000B8038DE20E942304CA30D10528F4812F98
:1009D000805D0E94230410C0C436D10568F4CE01A6
:1009E000B7010E94B006C82F862F805D0E942304A5
:1009F0008C2F805D0E9423048FED0E94230483E4EA
:100A00000E94230480E20E94230461CF5058BB2738
:100A1000AA270ED0E0C0D1D030F0D6D020F031F4EB
:100A20009F3F11F41EF4C6C00EF4E095E7FBBCC076
:100A3000E92FE2D080F3BA1762077307840795079E
:100A400018F071F49EF5FAC00EF4E0950B2EBA2F53
:100A5000A02D0B01B90190010C01CA01A0011124C4
:100A6000FF27591B99F0593F50F4503E68F11A1670
:100A7000F040A22F232F342F4427585FF3CF469501
:100A800037952795A795F0405395C9F77EF41F1623
:100A9000BA0B620B730B840BBAF09150A1F0FF0FED
:100AA000BB1F661F771F881FC2F70EC0BA0F621FD9
:100AB000731F841F48F4879577956795B795F795C9
:100AC0009E3F08F0B3CF9395880F08F09927EE0F5B
:100AD00097958795089598D088F09F5790F0B92FF3
:100AE0009927B751A0F0D1F0660F771F881F991F83
:100AF0001AF0BA95C9F712C0B13081F09FD0B1E0B9
:100B000008959CC0672F782F8827B85F39F0B93FC8
:100B1000CCF3869577956795B395D9F73EF4909584
:100B20008095709561957F4F8F4F9F4F0895E89402
:100B300009C097FB3EF490958095709561957F4F25
:100B40008F4F9F4F9923A9F0F92F96E9BB279395D3
:100B5000F695879577956795B795F111F8CFFAF4E3
:100B6000BB0F11F460FF1BC06F5F7F4F8F4F9F4F14
:100B700016C0882311F096E911C0772321F09EE872
:100B8000872F762F05C0662371F096E8862F70E0D8
:100B900060E02AF09A95660F771F881FDAF7880FB2
:100BA0009695879597F9089597F99F6780E870E083
:100BB00060E008959FEF80EC089500240A941616D3
:100BC000170618060906089500240A94121613063B
:100BD000140605060895092E0394000C11F48823C9
:100BE00052F0BB0F40F4BF2B11F460FF04C06F5FE5
:100BF0007F4F8F4F9F4F089557FD9058440F551FBB
:100C000059F05F3F71F04795880F97FB991F61F08E
:100C10009F3F79F087950895121613061406551F05
:100C2000F2CF4695F1DF08C0161617061806991F71
:100C3000F1CF86957105610508940895E894BB2766
:100C400066277727CB0197F9089566D008F48FEFD0
:100C500008950BD0C0CFB1DF28F0B6DF18F0952390
:100C600009F0A2CFA7CF1124EACFC6DFA0F3959F4A
:100C7000D1F3950F50E0551F629FF001729FBB2783
:100C8000F00DB11D639FAA27F00DB11DAA1F649F2F
:100C90006627B00DA11D661F829F2227B00DA11DE2
:100CA000621F739FB00DA11D621F839FA00D611D68
:100CB000221F749F3327A00D611D231F849F600D89
:100CC000211D822F762F6A2F11249F5750408AF0C2
:100CD000E1F088234AF0EE0FFF1FBB1F661F771F4E
:100CE000881F91505040A9F79E3F510570F05CCF8E
:100CF000A6CF5F3FECF3983EDCF38695779567953A
:100D0000B795F795E7959F5FC1F7FE2B880F911D6B
:100D10009695879597F90895990F0008550FAA0B96
:100D2000E0E8FEEF16161706E807F907C0F01216FE
:100D30001306E407F50798F0621B730B840B950B01
:100D400039F40A2661F0232B242B252B21F4089556
:100D50000A2609F4A140A6958FEF811D811D0895F3
:100D6000AA1BBB1B51E107C0AA1FBB1FA617B707D1
:100D700010F0A61BB70B881F991F5A95A9F78095ED
:0C0D80009095BC01CD010895F894FFCFC0
:0E0D8C0054656D70657261747572653D00008E
:00000001FF
