S015000074726166666963206C696768742E73726563F8
S11300000C942A000C9447000C9447000C9447006D
S11300100C9447000C9447000C9447000C94470040
S11300200C9447000C9447000C9448050C9447002A
S11300300C9447000C9447000C9447000C94470020
S11300400C9447000C9447000C9447000C94470010
S11300500C94470011241FBECFE5D8E0DEBFCDBF0E
S113006010E0A0E6B0E0E2ECFAE002C005900D92E8
S1130070A439B107D9F710E0A4E9B0E001C01D929A
S1130080A739B107E1F70E94C5040C945F050C94ED
S113009000000F931F93CF93DF938C01EB0118C0E3
S11300A088818436E8F31882F80180818150808346
S11300B081E090E06BE070E00E94CD03F801808164
S11300C090E0C0960E94380480E290E00E943804D8
S11300D0F8018081882321F7DF91CF911F910F913F
S11300E00895843409F479C0853448F48234B1F134
S11300F0833408F053C0813409F08DC00FC08236B8
S113010069F1833620F4813609F085C007C083364F
S113011009F444C0843609F07EC05FC0413069F4FC
S11301202AB381E090E0AC0102C0440F551F6A95E8
S1130130E2F7BA01622B6ABB0895442309F06BC04D
S11301402AB381E090E0AC0102C0440F551F6A95C8
S1130150E2F7BA01609562236ABB0895413069F4FD
S113016027B381E090E0AC0102C0440F551F6A95AB
S1130170E2F7BA01622B67BB0895442309F04BC030
S113018027B381E090E0AC0102C0440F551F6A958B
S1130190E2F7BA016095622367BB0895413069F4C0
S11301A024B381E090E0AC0102C0440F551F6A956E
S11301B0E2F7BA01622B64BB0895442361F524B3CA
S11301C081E090E0AC0102C0440F551F6A95E2F74C
S11301D0BA016095622364BB0895413069F421B388
S11301E081E090E0AC0102C0440F551F6A95E2F72C
S11301F0BA01622B61BB0895442369F421B381E001
S113020090E0AC0102C0440F551F6A95E2F7BA01B1
S11302106095622361BB0895843409F471C0853408
S113022048F4823499F1833408F04DC0813409F0E4
S113023083C00FC0823651F1833620F4813609F031
S11302407BC007C0833609F43EC0843609F074C00D
S113025057C0413069F42BB381E090E0AC0102C097
S1130260440F551F6A95E2F7BA01622B6BBB0895E0
S11302702BB381E090E0AC0102C0440F551F6A9596
S1130280E2F7BA01609562236BBB0895413069F4CB
S113029028B381E090E0AC0102C0440F551F6A9579
S11302A0E2F7BA01622B68BB089528B381E090E0BD
S11302B0AC0102C0440F551F6A95E2F7BA0160957C
S11302C0622368BB0895413069F425B381E090E06E
S11302D0AC0102C0440F551F6A95E2F7BA01622BC4
S11302E065BB089525B381E090E0AC0102C0440FE2
S11302F0551F6A95E2F7BA016095622365BB0895BC
S1130300413069F422B381E090E0AC0102C0440FB3
S1130310551F6A95E2F7BA01622B62BB089522B3B6
S113032081E090E0AC0102C0440F551F6A95E2F7EA
S1130330BA016095622362BB0895843409F43DC018
S1130340853440F48234F9F0833450F5813409F073
S113035040C00CC08236B9F0833618F48136C9F532
S113036005C08336E9F08436A1F527C02BB381E0BC
S113037090E0AC0102C0440F551F6A95E2F7BA0140
S113038062276BBB089528B381E090E0AC0102C002
S1130390440F551F6A95E2F7BA01622768BB0895B6
S11303A025B381E090E0AC0102C0440F551F6A956B
S11303B0E2F7BA01622765BB089522B381E090E0B9
S11303C0AC0102C0440F551F6A95E2F7BA016227D7
S11303D062BB0895843409F44EC0853440F48234F9
S11303E031F18334B0F5813409F057C00EC0823640
S11303F0F1F0833620F4813609F04FC006C083360D
S113040041F1843609F049C036C029B381E090E057
S1130410062E02C0880F991F0A94E2F730E0822367
S1130420932302C0959587956A95E2F7089526B3BC
S113043081E090E0062E02C0880F991F0A94E2F72B
S113044030E08223932302C0959587956A95E2F75D
S1130450089523B381E090E0062E02C0880F991F0F
S11304600A94E2F730E08223932302C0959587959E
S11304706A95E2F7089520B381E090E0062E02C069
S1130480880F991F0A94E2F730E08223932302C075
S1130490959587956A95E2F7089580E008958434E8
S11304A0D9F0853438F4823499F0833498F4813463
S11304B0A1F40CC0823661F0833618F4813669F4F5
S11304C005C0833639F0843641F406C06ABB08950A
S11304D067BB089564BB089561BB08958434D9F063
S11304E0853438F4823499F0833498F48134A1F457
S11304F00CC0823661F0833618F4813669F405C085
S1130500833639F0843641F406C06BBB089568BB6A
S1130510089565BB089562BB08958434D9F0853489
S113052038F4823499F0833498F48134A9F40CC0FB
S1130530823661F0833618F4813671F405C083364F
S113054039F0843649F406C089B3089586B3089512
S113055083B3089580B3089580E00895843409F145
S1130560853438F48234A9F08334B8F48134E1F466
S11305700CC0823671F0833618F48136A9F405C0B4
S1130580833659F0843681F40CC08BB380958BBBD1
S1130590089588B3809588BB089585B3809585BBFD
S11305A0089582B3809582BB08950E940C0108953A
S11305B0CF92DF92FF920F931F93CF93DF93F82E86
S11305C0C0E0D0E001E010E0C62EDD24C8010C2E0E
S11305D002C0880F991F0A94E2F78C219D219C0187
S11305E00C2E02C0359527950A94E2F7A9018F2DA8
S11305F06C2F0E940C012196C430D10539F7DF918C
S1130600CF911F910F91FF90DF90CF900895CF92DB
S1130610DF92FF920F931F93CF93DF93F82EC0E0E6
S1130620D0E001E010E0C62EDD246C2F6C5FC80121
S11306300C2E02C0880F991F0A94E2F78C219D2189
S11306409C010C2E02C0359527950A94E2F7A90166
S11306508F2D0E940C012196C430D10531F7DF9112
S1130660CF911F910F91FF90DF90CF900895CF927B
S1130670DF92EF92FF920F931F93CF93DF93082F94
S1130680162FC0E0D0E0EE24FF24E394C42EDD2432
S11306906C2F610FC7010C2E02C0880F991F0A949A
S11306A0E2F78C219D219C010C2E02C035952795E3
S11306B00A94E2F7A901802F0E940C012196C4300C
S11306C0D10531F7DF91CF911F910F91FF90EF90FA
S11306D0DF90CF900895CF92DF92EF92FF920F9325
S11306E01F93CF93DF93082F162FC0E0D0E0EE24A2
S11306F0FF24E394C42EDD246C2F610FC7010C2E5C
S113070002C0880F991F0A94E2F78C219D219C0155
S11307100C2E02C0359527950A94E2F7A901802F83
S11307200E9471002196C430D10531F7DF91CF9139
S11307301F910F91FF90EF90DF90CF90089582E486
S113074062E041E00E940C018FE99FE00197F1F71C
S113075000C0000082E462E040E00E940C018FE9E6
S11307609FE00197F1F700C000000895CF93C82FD0
S113077082E460E040E00E940C016C2F62956F708F
S113078081E40E9407030E949F0381E46C2F0E946E
S113079007030E949F03CF910895982F91509230A0
S11307A060F4662361F0613160F4813019F4862FBE
S11307B0815808C0862F815405C080E803C080E8B2
S11307C001C080E80E94B603089582E00E94B60347
S11307D08FE19EE40197F1F700C00000089581E0E5
S11307E00E94B6038FE19EE40197F1F700C0000078
S11307F008958FEF91EEA4E081509040A040E1F77E
S113080000C0000081E464E041E00E94710081E4E2
S113081065E041E00E94710081E466E041E00E94ED
S1130820710081E467E041E00E94710082E460E0CD
S113083041E00E94710082E462E041E00E947100A4
S113084082E461E041E00E94710082E461E040E002
S11308500E940C010E94E50388E20E94B6038CE02A
S11308600E94B6030E94EF0386E00E94B603089537
S1130870CF93C82F82E460E041E00E940C016C2F0A
S113088062956F7081E40E9407030E949F0381E4D4
S11308906C2F0E9407030E949F03CF910895CF936A
S11308A0DF93EC018881882361F021960E9438044B
S11308B08FEC97E00197F1F700C00000899188233D
S11308C0A9F7DF91CF91089541E00E947100089546
S11308D041E00E940C01089540E00E940C0108953B
S11308E00E949D0108950E94EA0108950E944F020A
S11308F008950E94AE02089583B7886083BF83B7CA
S1130900816083BF83B7846083BF80E58CBF7894A4
S113091089B7826089BF0895BB9A83B7886083BF13
S113092080E48CBF83B7816083BF83B7846083BF57
S113093083B7806183BF0895BB9A83B7806483BF04
S113094083B7886083BF80E48CBF83B7816083BF33
S113095083B7846083BF83B7806183BF83B78062BA
S113096083BF0895BB9A83B7806483BF80E48CBF40
S113097083B7816083BF83B7846083BF83B780619B
S113098083BF83B7806283BF08950E94F9030E94E6
S11309907C0484E660E00E94640484E661E00E94D2
S11309A0640484E662E00E9464040F2EF0E6AF2E35
S11309B0F0E0BF2EF02D0F2EFAE0FF2EF02DC4E94B
S11309C0D0E005E910E00F2EF5E0EF2EF02D0F2E0C
S11309D0F1E78F2EF0E09F2EF02D0F2EF7E0DF2EA3
S11309E0F02D0F2EF1E86F2EF0E07F2EF02DC501D3
S11309F00E944F0484E660E00E946804F092940030
S1130A00CE01B8010E944900E09294008FEF94E374
S1130A10ACE081509040A040E1F700C000000E948B
S1130A20EF03C4010E944F0484E660E00E946C045A
S1130A3084E661E00E946804CE01B8010E94490086
S1130A40D09294008FEF94E3ACE081509040A040AA
S1130A50E1F700C000000E94EF03C3010E944F04AD
S1130A6084E661E00E946C0484E662E00E9468040B
S1130A70CE01B8010E9449008FEF94E3ACE08150AD
S1130A809040A040E1F700C000000E94EF03AFCF08
S1130A901F920F920FB60F9211248F939F93809100
S1130AA095009091960001969093960080939500FE
S1130AB09F918F910F900FBE0F901F901895F894EF
S1050AC0FFCF62
S1130AC272656D61696E696E67203130207365638A
S1130AD20072656D61696E696E67203520736563A6
S1130AE20072656D61696E696E6720372073656394
S1070AF2000A0507E6
S9030000FC
