:100000000C942A000C9447000C9447000C94470071
:100010000C9447000C9447000C9447000C94470044
:100020000C9447000C9447000C9447000C94470034
:100030000C9447000C9447000C9447000C94470024
:100040000C9447000C9447000C9447000C94470014
:100050000C94470011241FBECFE5D8E0DEBFCDBF12
:1000600011E0A0E6B0E0E0EEF3E102C005900D92F1
:10007000AE37B107D9F711E0AEE7B1E001C01D928C
:10008000A638B107E1F70E940D050C94EE090C9417
:10009000000041E00E946100089541E00E94FC00E0
:1000A000089540E00E94FC0008950E948D0108958B
:1000B0000E94DA0108950E943F0208950E949E0264
:1000C0000895843409F479C0853448F48234B1F158
:1000D000833408F053C0813409F08DC00FC08236DC
:1000E00069F1833620F4813609F085C007C0833674
:1000F00009F444C0843609F07EC05FC0413069F421
:100100002AB381E090E0AC0102C0440F551F6A950C
:10011000E2F7BA01622B6ABB0895442309F06BC071
:100120002AB381E090E0AC0102C0440F551F6A95EC
:10013000E2F7BA01609562236ABB0895413069F421
:1001400027B381E090E0AC0102C0440F551F6A95CF
:10015000E2F7BA01622B67BB0895442309F04BC054
:1001600027B381E090E0AC0102C0440F551F6A95AF
:10017000E2F7BA016095622367BB0895413069F4E4
:1001800024B381E090E0AC0102C0440F551F6A9592
:10019000E2F7BA01622B64BB0895442361F524B3EE
:1001A00081E090E0AC0102C0440F551F6A95E2F770
:1001B000BA016095622364BB0895413069F421B3AC
:1001C00081E090E0AC0102C0440F551F6A95E2F750
:1001D000BA01622B61BB0895442369F421B381E025
:1001E00090E0AC0102C0440F551F6A95E2F7BA01D6
:1001F0006095622361BB0895843409F471C085342D
:1002000048F4823499F1833408F04DC0813409F008
:1002100083C00FC0823651F1833620F4813609F055
:100220007BC007C0833609F43EC0843609F074C031
:1002300057C0413069F42BB381E090E0AC0102C0BB
:10024000440F551F6A95E2F7BA01622B6BBB089504
:100250002BB381E090E0AC0102C0440F551F6A95BA
:10026000E2F7BA01609562236BBB0895413069F4EF
:1002700028B381E090E0AC0102C0440F551F6A959D
:10028000E2F7BA01622B68BB089528B381E090E0E1
:10029000AC0102C0440F551F6A95E2F7BA016095A0
:1002A000622368BB0895413069F425B381E090E092
:1002B000AC0102C0440F551F6A95E2F7BA01622BE8
:1002C00065BB089525B381E090E0AC0102C0440F06
:1002D000551F6A95E2F7BA016095622365BB0895E0
:1002E000413069F422B381E090E0AC0102C0440FD8
:1002F000551F6A95E2F7BA01622B62BB089522B3DB
:1003000081E090E0AC0102C0440F551F6A95E2F70E
:10031000BA016095622362BB0895843409F43DC03C
:10032000853440F48234F9F0833450F5813409F097
:1003300040C00CC08236B9F0833618F48136C9F556
:1003400005C08336E9F08436A1F527C02BB381E0E0
:1003500090E0AC0102C0440F551F6A95E2F7BA0164
:1003600062276BBB089528B381E090E0AC0102C026
:10037000440F551F6A95E2F7BA01622768BB0895DA
:1003800025B381E090E0AC0102C0440F551F6A958F
:10039000E2F7BA01622765BB089522B381E090E0DD
:1003A000AC0102C0440F551F6A95E2F7BA016227FB
:1003B00062BB0895843409F44EC0853440F482341D
:1003C00031F18334B0F5813409F057C00EC0823664
:1003D000F1F0833620F4813609F04FC006C0833631
:1003E00041F1843609F049C036C029B381E090E07C
:1003F000062E02C0880F991F0A94E2F730E082238C
:10040000932302C0959587956A95E2F7089526B3E0
:1004100081E090E0062E02C0880F991F0A94E2F74F
:1004200030E08223932302C0959587956A95E2F781
:10043000089523B381E090E0062E02C0880F991F33
:100440000A94E2F730E08223932302C095958795C2
:100450006A95E2F7089520B381E090E0062E02C08D
:10046000880F991F0A94E2F730E08223932302C099
:10047000959587956A95E2F7089580E0089584340C
:10048000D9F0853438F4823499F0833498F4813487
:10049000A1F40CC0823661F0833618F4813669F419
:1004A00005C0833639F0843641F406C06ABB08952E
:1004B00067BB089564BB089561BB08958434D9F087
:1004C000853438F4823499F0833498F48134A1F47B
:1004D0000CC0823661F0833618F4813669F405C0A9
:1004E000833639F0843641F406C06BBB089568BB8F
:1004F000089565BB089562BB08958434D9F08534AE
:1005000038F4823499F0833498F48134A9F40CC01F
:10051000823661F0833618F4813671F405C0833673
:1005200039F0843649F406C089B3089586B3089536
:1005300083B3089580B3089580E00895843409F169
:10054000853438F48234A9F08334B8F48134E1F48A
:100550000CC0823671F0833618F48136A9F405C0D8
:10056000833659F0843681F40CC08BB380958BBBF5
:10057000089588B3809588BB089585B3809585BB21
:10058000089582B3809582BB08950E94FC0008956F
:10059000CF92DF92FF920F931F93CF93DF93F82EAA
:1005A000C0E0D0E001E010E0C62EDD24C8010C2E32
:1005B00002C0880F991F0A94E2F78C219D219C01AB
:1005C0000C2E02C0359527950A94E2F7A9018F2DCC
:1005D0006C2F0E94FC002196C430D10539F7DF91C1
:1005E000CF911F910F91FF90DF90CF900895CF9200
:1005F000DF92FF920F931F93CF93DF93F82EC0E00B
:10060000D0E001E010E0C62EDD246C2F6C5FC80145
:100610000C2E02C0880F991F0A94E2F78C219D21AD
:100620009C010C2E02C0359527950A94E2F7A9018A
:100630008F2D0E94FC002196C430D10531F7DF9147
:10064000CF911F910F91FF90DF90CF900895CF929F
:10065000DF92EF92FF920F931F93CF93DF93082FB8
:10066000162FC0E0D0E0EE24FF24E394C42EDD2456
:100670006C2F610FC7010C2E02C0880F991F0A94BE
:10068000E2F78C219D219C010C2E02C03595279507
:100690000A94E2F7A901802F0E94FC002196C43041
:1006A000D10531F7DF91CF911F910F91FF90EF901E
:1006B000DF90CF900895CF92DF92EF92FF920F9349
:1006C0001F93CF93DF93082F162FC0E0D0E0EE24C6
:1006D000FF24E394C42EDD246C2F610FC7010C2E80
:1006E00002C0880F991F0A94E2F78C219D219C017A
:1006F0000C2E02C0359527950A94E2F7A901802FA8
:100700000E9461002196C430D10531F7DF91CF916D
:100710001F910F91FF90EF90DF90CF9008958EBBC7
:100720009FBB6DBBE29AE19AE199FECF08958EBB23
:100730009FBBE09A8DB3089583E660E041E00E949C
:10074000610083E661E041E00E94610083E662E0CF
:1007500041E00E94610083E663E041E00E946100A5
:1007600083E664E040E00E94610083E665E040E0EB
:100770000E94610083E666E040E00E94610083E63B
:1007800067E040E00E94610083E664E041E00E948F
:10079000C50283E665E041E00E94C50283E666E0AB
:1007A00041E00E94C50283E667E041E00E94C50285
:1007B00008950F931F93CF93DF93CDB7DEB7609764
:1007C0000FB6F894DEBF0FBECDBFDE011196E0E696
:1007D000F0E080E101900D928150E1F700E083E6C6
:1007E00060E041E00E94FC0083E661E041E00E949D
:1007F000FC0083E662E041E00E94FC0083E663E0E7
:1008000041E00E94FC0083E6602F40E00E94FC0073
:1008100010E0612F6C5F83E60E94DA01882361F4A7
:10082000E02FF0E0EE0FFF1FEE0FFF1FE10FF11DB5
:10083000EC0FFD1F818104C01F5F143051F70BC006
:1008400060960FB6F894DEBF0FBECDBFDF91CF919B
:100850001F910F9108950F5F043009F68FEFF0CFCD
:1008600081E464E041E00E94FC008FE99FE0019791
:10087000F1F700C0000081E464E040E00E94FC0069
:100880008FE99FE00197F1F700C000000895CF9332
:10089000C82F81E466E040E00E94FC006C2F629566
:1008A0006F7081E40E94C8020E94300481E46C2FC2
:1008B0000E94C8020E943004CF910895982F915051
:1008C000923060F4662361F0613160F4813019F494
:1008D000862F815808C0862F815405C080E803C048
:1008E00080E801C080E80E944704089582E00E94E9
:1008F00047048FE19EE40197F1F700C000000895DE
:1009000081E00E9447048FE19EE40197F1F700C067
:10091000000008958FEF91EEA4E081509040A04038
:10092000E1F700C0000081E460E041E00E94610066
:1009300081E461E041E00E94610081E462E041E025
:100940000E94610081E463E041E00E94610081E473
:1009500066E041E00E94610081E464E041E00E94C1
:10096000610081E465E041E00E94610081E465E0AE
:1009700040E00E94FC000E94760488E20E94470446
:100980008EE00E9447040E94800486E00E94470493
:100990000895CF93C82F81E466E041E00E94FC00F7
:1009A0006C2F62956F7081E40E94C8020E9430042F
:1009B00081E46C2F0E94C8020E943004CF910895F8
:1009C000CF93DF93EC018881882361F021960E9408
:1009D000C9048FEC97E00197F1F700C000008991FE
:1009E0008823A9F7DF91CF91089541E00E9461002B
:1009F000089541E00E94FC00089540E00E94FC0040
:100A000008950E948D0108950E94DA0108950E94C0
:100A10003F0208950E949E0208954F925F926F9246
:100A20007F928F929F92AF92BF92CF92DF92EF927E
:100A3000FF920F931F93CF93DF930E948A040E942B
:100A40009C0382E661E00E94F50482E662E00E9477
:100A5000F50482E660E00E94490089E190E00E948E
:100A60009703813009F472C081E063E00E945E0464
:100A700080E790E00E94E0048FEF99E6A8E18150C2
:100A80009040A040E1F700C000000E9480048DE784
:100A900090E00E94E00482E061E00E945E048091A8
:100AA00085018430E0F50E94D903809384018F3F53
:100AB00049F18FE798E3A1E081509040A040E1F731
:100AC00000C00000809184010E94C9048FEF91EE64
:100AD000A4E081509040A040E1F700C0000080E118
:100AE0000E9447048AE20E94C9048091850190E037
:100AF0008096609184010E948F03809185018F5FB1
:100B0000809385018FE799EAA3E081509040A0404F
:100B1000E1F700C0000080918501843020F289E176
:100B200090E061E00E948F030E9480048FE890E0D3
:100B30000E94E0048FEF99E6A8E181509040A04028
:100B4000E1F700C000000E9480041EC20E948004E1
:100B500080EA90E00E94E00482E061E00E945E048E
:100B600081EB90E00E94E0048FEF93EDA0E38150D1
:100B70009040A040E1F700C000000E94800481EC9A
:100B800090E00E94E0048FEF809384010E94D903DB
:100B9000809384018F3FD1F30E94C9048FEF99E6BF
:100BA000A8E181509040A040E1F700C00000809192
:100BB0008401813309F4D8C0823309F0E5C101C151
:100BC000D09384010E948004C8010E94E00482E066
:100BD00061E00E945E0410927F010E94D903282FD9
:100BE000809384018F3FC9F380917F0190E080580A
:100BF0009E4FDC012C938FE798E3A1E08150904059
:100C0000A040E1F700C00000822F0E94C9048FEFCE
:100C100094E3ACE081509040A040E1F700C00000B8
:100C200080E10E9447048AE20E94C90480917F010A
:100C30008F5F80937F01843080F2D701CC9180E276
:100C400090E00E949703C81709F040C0F201C081EC
:100C500081E290E00E949703C817C1F5A2E8B1E0D5
:100C6000CC9182E290E00E949703C81779F5E3E8FF
:100C7000F1E0C08183E290E00E949703C81731F54C
:100C80000E94800489ED90E00E94E00482E061E02F
:100C90000E945E0488EE90E00E94E00482E662E03A
:100CA0000E94F9048FEF93EDA0E381509040A040A3
:100CB000E1F700C0000082E662E00E94FD048AE5E0
:100CC0000E94D70781E080937E0175C00E94800456
:100CD00080917C01815080937C018823F1F0C601D2
:100CE0000E94E00482E061E00E945E04C4010E9470
:100CF000E00480917C01805D0E94C904C3010E94D0
:100D0000E0048FEF99E6A8E181509040A040E1F720
:100D100000C0000010927E014EC0C6010E94E00497
:100D200082E061E00E945E04C5010E94E00481E06F
:100D300080937E0182E661E00E94F90482E660E031
:100D40000E944D008FEF99E6A8E181509040A040AD
:100D5000E1F700C0000082E661E00E94FD0482E647
:100D600060E00E94510027C0DFEF09EC10E00F2E79
:100D7000F0E8EF2EF1E0FF2EF02D0F2EF6EFCF2E44
:100D8000F0E0DF2EF02D0F2EFBE1AF2EF1E0BF2EB5
:100D9000F02D0F2EF5E08F2EF1E09F2EF02D0F2E6F
:100DA000FFE06F2EF1E07F2EF02D0F2EF1E84F2E99
:100DB000F1E05F2EF02D80917E01882309F400CFB1
:100DC000E3C00E94800487E291E00E94E00482E098
:100DD00061E00E945E0410927F010E94D90380931B
:100DE00084018F3FD1F3E0917F01F0E0E058FE4FA6
:100DF00080838FE798E3A1E081509040A040E1F725
:100E000000C00000809184010E94C9048FEF94E328
:100E1000ACE081509040A040E1F700C0000080E1CC
:100E20000E9447048AE20E94C90480917F018F5F7B
:100E300080937F01843088F2C091800180E290E04D
:100E40000E949703C81709F077C0C091810181E221
:100E500090E00E949703C81709F06EC0C09182010C
:100E600082E290E00E949703C81709F065C0C09124
:100E7000830183E290E00E949703C81709F05CC0E9
:100E80000E94800489ED90E00E94E0048FEF99E6D3
:100E9000A8E181509040A040E1F700C000000E940E
:100EA000800487E391E00E94E00482E061E00E9418
:100EB0005E0410927F010E94D903809384018F3FCA
:100EC000D1F38FE798E3A1E081509040A040E1F793
:100ED00000C00000809184010E94C9048FEF94E358
:100EE000ACE081509040A040E1F700C0000080E1FC
:100EF0000E9447048AE20E94C90480917F0190E029
:100F00008096609184010E948F0380917F018F5FA2
:100F100080937F01843078F28FEF99E6A8E18150C9
:100F20009040A040E1F700C000000E94800489E4E6
:100F300091E00E94E00428C08FEF99E6A8E181507B
:100F40009040A040E1F700C000000E9480048AE5C4
:100F500091E00E94E00482E061E00E945E048BE682
:100F600091E00E94E00482E661E00E94F9048FEFC4
:100F700099E6A8E181509040A040E1F700C0000050
:100F800082E661E00E94FD0480E090E0DF91CF9175
:100F90001F910F91FF90EF90DF90CF90BF90AF9097
:100FA0009F908F907F906F905F904F900895682FE3
:100FB000772767FD7095872F972F0E94FF0821E6FE
:100FC0003BE046EB5BE30E948B0920E030E040EC25
:100FD0005FE30E946D080E944508089583B788600A
:100FE00083BF83B7816083BF83B7846083BF80E59D
:100FF0008CBF789489B7826089BF0895BB9A83B704
:10100000886083BF80E48CBF83B7816083BF83B770
:10101000846083BF83B7806183BF0895BB9A83B721
:10102000806483BF83B7886083BF80E48CBF83B74D
:10103000816083BF83B7846083BF83B7806183BFD0
:1010400083B7806283BF0895BB9A83B7806483BFF0
:1010500080E48CBF83B7816083BF83B7846083BF24
:1010600083B7806183BF83B7806283BF089582B5F1
:10107000886082BD85B5816085BD85B5846085BD8C
:10108000789489B7806489BF08958D9A2FB52260BE
:101090002FBD2EB528602EBD2EB520612EBD2FB5DB
:1010A00020682FBD2EB522602EBD2FE13EE437BD56
:1010B00026BD20E030E04AE754E40E948B0920E09E
:1010C00030E040E85FE30E946C080E94D108DC0138
:1010D000CB019BBD8ABD08955058BB27AA270ED0CF
:1010E000E0C0D1D030F0D6D020F031F49F3F11F4E1
:1010F0001EF4C6C00EF4E095E7FBBCC0E92FE2D0B9
:1011000080F3BA17620773078407950718F071F424
:101110009EF5FAC00EF4E0950B2EBA2FA02D0B0110
:10112000B90190010C01CA01A0011124FF27591B2C
:1011300099F0593F50F4503E68F11A16F040A22F32
:10114000232F342F4427585FF3CF469537952795A3
:10115000A795F0405395C9F77EF41F16BA0B620BA2
:10116000730B840BBAF09150A1F0FF0FBB1F661FE9
:10117000771F881FC2F70EC0BA0F621F731F841F2C
:1011800048F4879577956795B795F7959E3F08F052
:10119000B3CF9395880F08F09927EE0F9795879511
:1011A000089598D088F09F5790F0B92F9927B7519C
:1011B000A0F0D1F0660F771F881F991F1AF0BA951B
:1011C000C9F712C0B13081F09FD0B1E008959CC042
:1011D000672F782F8827B85F39F0B93FCCF3869511
:1011E00077956795B395D9F73EF49095809570956E
:1011F00061957F4F8F4F9F4F0895E89409C097FBEB
:101200003EF490958095709561957F4F8F4F9F4FDD
:101210009923A9F0F92F96E9BB279395F695879521
:1012200077956795B795F111F8CFFAF4BB0F11F4E4
:1012300060FF1BC06F5F7F4F8F4F9F4F16C088238B
:1012400011F096E911C0772321F09EE8872F762FC1
:1012500005C0662371F096E8862F70E060E02AF002
:101260009A95660F771F881FDAF7880F96958795EE
:1012700097F9089597F99F6780E870E060E0089516
:101280009FEF80EC089500240A941616170618069E
:101290000906089500240A9412161306140605067A
:1012A0000895092E0394000C11F4882352F0BB0F0B
:1012B00040F4BF2B11F460FF04C06F5F7F4F8F4F6E
:1012C0009F4F089557FD9058440F551F59F05F3FA9
:1012D00071F04795880F97FB991F61F09F3F79F058
:1012E00087950895121613061406551FF2CF4695DA
:1012F000F1DF08C0161617061806991FF1CF86955C
:101300007105610508940895E894BB27662777273F
:10131000CB0197F908950BD0C4CFB5DF28F0BADF21
:1013200018F0952309F0A6CFABCF1124EECFCADF7A
:10133000A0F3959FD1F3950F50E0551F629FF001E8
:10134000729FBB27F00DB11D639FAA27F00DB11D41
:10135000AA1F649F6627B00DA11D661F829F2227CA
:10136000B00DA11D621F739FB00DA11D621F839F51
:10137000A00D611D221F749F3327A00D611D231F27
:10138000849F600D211D822F762F6A2F11249F5775
:1013900050408AF0E1F088234AF0EE0FFF1FBB1F98
:1013A000661F771F881F91505040A9F79E3F510537
:1013B00070F060CFAACF5F3FECF3983EDCF38695E8
:1013C00077956795B795F795E7959F5FC1F7FE2BE2
:1013D000880F911D9695879597F90895F894FFCFFA
:1013E0003738392F3435362A3132332D41303D2BC1
:1013F000534146452050524F4A454354005365746B
:10140000207468652070617373776F72643A00703E
:10141000617373776F726420736176656421210054
:10142000312F636865636B2070617373776F7264CB
:1014300000322F656469742070617373776F726412
:101440000031206F7220323A00636865636B207050
:10145000617373776F72643A0052696768742070C1
:10146000617373776F72640053616665206F706596
:101470006E656421210077726F6E672070617373EF
:10148000776F726400796F752068617665200074EB
:101490007269616C73206F6E6C79005361666520B0
:1014A000436C6F73656400456E74657220506173A0
:1014B00073776F72643A00456E7465724E6577504B
:1014C000617373776F72643A0050617373776F72F0
:1014D0006420736176656421210057726F6E672006
:1014E00070617373776F726421210043616E7420A1
:0E14F0006368616E67652069742E2E0003002C
:00000001FF
